S0130000536572766F204D6F746F722E73726563D1
S11300000C942A000C9447000C9447000C9447006D
S11300100C9447000C9447000C94A3020C944700E2
S11300200C947C020C9455020C9447000C944700E9
S11300300C9447000C9447000C9447000C94470020
S11300400C9447000C9447000C9447000C94470010
S11300500C94470011241FBECFE5D8E0DEBFCDBF0E
S113006010E0A0E6B0E0ECEEF7E002C005900D92DF
S1130070A83AB107D9F720E0A8EAB0E001C01D9280
S1130080AE3AB207E1F70E9471010C94F4030C94A8
S11300900000982F9695969596958770913021F14A
S11300A030F09230F1F1933009F458C00895613082
S11300B069F44AB321E030E0B90102C0660F771F4A
S11300C08A95E2F7CB01842B8ABB08954AB321E0D9
S11300D030E0B90102C0660F771F8A95E2F7CB01C1
S11300E0809584238ABB0895613069F447B321E085
S11300F030E0B90102C0660F771F8A95E2F7CB01A1
S1130100842B87BB089547B321E030E0B90102C0D6
S1130110660F771F8A95E2F7CB018095842387BB0E
S11301200895613069F444B321E030E0B90102C0BC
S1130130660F771F8A95E2F7CB01842B84BB089561
S113014044B321E030E0B90102C0660F771F8A95FD
S1130150E2F7CB018095842384BB0895613069F470
S113016041B321E030E0B90102C0660F771F8A95E0
S1130170E2F7CB01842B81BB089541B321E030E049
S1130180B90102C0660F771F8A95E2F7CB0180950B
S1130190842381BB089580E0A0C0982F96959695FE
S11301A09695282F2770913061F138F0923009F438
S11301B04CC0933009F46DC08FC0E82FF0E0EE0F0F
S11301C0FF1FE05AFF4F9081913069F49AB341E0E8
S11301D050E0BA0102C0660F771F2A95E2F79B012F
S11301E0292B2ABB79C09AB341E050E0BA0102C07E
S11301F0660F771F2A95E2F79B01209529232ABBD6
S11302006BC0E82FF0E0EE0FFF1FE05AFF4F908124
S1130210913069F497B341E050E0BA0102C0660F2F
S1130220771F2A95E2F79B01292B27BB55C097B36B
S113023041E050E0BA0102C0660F771F2A95E2F749
S11302409B012095292327BB47C0E82FF0E0EE0F40
S1130250FF1FE05AFF4F9081913069F494B341E05D
S113026050E0BA0102C0660F771F2A95E2F79B019E
S1130270292B24BB31C094B341E050E0BA0102C041
S1130280660F771F2A95E2F79B012095292324BB4B
S113029023C0E82FF0E0EE0FFF1FE05AFF4F9081DC
S11302A0913069F491B341E050E0BA0102C0660FA5
S11302B0771F2A95E2F79B01292B21BB0DC091B32F
S11302C041E050E0BA0102C0660F771F2A95E2F7B9
S11302D09B012095292321BB8F5F803208F45DCFD9
S11302E008950E94CB0080E090E00E94B5012FE9C0
S11302F086E891E0215080409040E1F700C0000082
S11303008DE290E00E94B5012FE986E891E021504A
S113031080409040E1F700C000008AE590E00E9430
S1130320B5012FE986E891E0215080409040E1F743
S113033000C0000087E890E00E94B5012FE986E83C
S113034091E0215080409040E1F700C0000084EB30
S113035090E00E94B5012FE38DE093E021508040AE
S11303609040E1F700C00000BECF0F931F93CF93DE
S1130370DF93CDB7DEB728970FB6F894DEBF0FBE74
S1130380CDBF8C0161E08DE10E944900B80180E09D
S113039090E00E94F9022CE137EC41EB5FE30E940C
S11303A05F030E94CA028B0107501F4F67E873E185
S11303B082E00E944602B80180E00E94460288E082
S11303C0E0EAF0E0DE01119601900D928A95E1F7E2
S11303D0CE0101960E94F70128960FB6F894DEBF6D
S11303E00FBECDBFDF91CF911F910F910895FC01F6
S11303F09FB580818370892B8FBD2EB59081969592
S11304009695892F90E0880F991F880F991F880F60
S1130410991F822B8EBD9EB58181892B8EBD2FB5F0
S1130420928130E4939FC0011124822B8FBD2FB59C
S1130430938130E1939FC0011124822B8FBD29B792
S11304409481892F90E0880F991F880F991F822B20
S113045089BF29B79681892F90E0880F991F880F4B
S1130460991F880F991F822B89BF29B7958130E185
S1130470939FC0011124822B89BF29B7978130E251
S1130480939FC0011124822B89BF0895813039F0D4
S113049018F0823039F008957BBD6ABD089579BDA6
S11304A068BD089577BD66BD08951F920F920FB67B
S11304B00F9211242F933F934F935F936F937F93E6
S11304C08F939F93AF93BF93EF93FF93E091AC000F
S11304D0F091AD000995FF91EF91BF91AF919F917C
S11304E08F917F916F915F914F913F912F910F90D9
S11304F00FBE0F901F9018951F920F920FB60F9278
S113050011242F933F934F935F936F937F938F9314
S11305109F93AF93BF93EF93FF93E091AA00F09161
S1130520AB000995FF91EF91BF91AF919F918F918E
S11305307F916F915F914F913F912F910F900FBEDB
S11305400F901F9018951F920F920FB60F921124BF
S11305502F933F934F935F936F937F938F939F93C7
S1130560AF93BF93EF93FF93E091A800F091A9009C
S11305700995FF91EF91BF91AF919F918F917F91D9
S11305806F915F914F913F912F910F900FBE0F90FC
S11305901F9018950E943E0388F09F5798F0B92F3A
S11305A09927B751B0F0E1F0660F771F881F991FA4
S11305B01AF0BA95C9F714C0B13091F00E945803EB
S11305C0B1E008950C945803672F782F8827B85FFB
S11305D039F0B93FCCF3869577956795B395D9F7FC
S11305E03EF490958095709561957F4F8F4F9F4F06
S11305F00895E89409C097FB3EF490958095709512
S113060061957F4F8F4F9F4F9923A9F0F92F96E95A
S1130610BB279395F695879577956795B795F111CF
S1130620F8CFFAF4BB0F11F460FF1BC06F5F7F4F6C
S11306308F4F9F4F16C0882311F096E911C077237E
S113064021F09EE8872F762F05C0662371F096E887
S1130650862F70E060E02AF09A95660F771F881F56
S1130660DAF7880F9695879597F9089557FD90586E
S1130670440F551F59F05F3F71F04795880F97FB62
S1130680991F61F09F3F79F087950895121613061C
S11306901406551FF2CF4695F1DF08C0161617064B
S11306A01806991FF1CF8695710561050894089580
S11306B0E894BB2766277727CB0197F908950E9412
S11306C072030C94E3030E94D50338F00E94DC0308
S11306D020F0952311F00C94CC030C94D203112434
S11306E00C9459030E94360370F3959FC1F3950F40
S11306F050E0551F629FF001729FBB27F00DB11DA2
S1130700639FAA27F00DB11DAA1F649F6627B00D31
S1130710A11D661F829F2227B00DA11D621F739F1A
S1130720B00DA11D621F839FA00D611D221F749F28
S11307303327A00D611D231F849F600D211D822F6F
S1130740762F6A2F11249F5750409AF0F1F0882396
S11307504AF0EE0FFF1FBB1F661F771F881F9150C3
S11307605040A9F79E3F510580F00C94CC030C94A3
S113077059035F3FE4F3983ED4F3869577956795E4
S1130780B795F795E7959F5FC1F7FE2B880F911DED
S11307909695879597F9089597F99F6780E870E093
S11307A060E008959FEF80EC089500240A941616E3
S11307B0170618060906089500240A94121613064B
S11307C0140605060895092E0394000C11F48823D9
S11307D052F0BB0F40F4BF2B11F460FF04C06F5FF5
S10F07E07F4F8F4F9F4F0895F894FFCF78
S11307EC01010101010101010101010101010101E9
S11307FC01010101010101010101010101010101D9
S113080C01010101010101010101010101010101C8
S113081C01010101000001010101010100000101BC
S10B082C0E03020000000000AD
S9030000FC
