S00E00004B65795061642E73726563D8
S11300000C9434000C9451000C9451000C94510045
S11300100C9451000C9451000C9451000C94510018
S11300200C9451000C9451000C9451000C94510008
S11300300C9451000C9451000C9451000C945100F8
S11300400C9451000C9451000C9451000C945100E8
S11300500C945100700285029A02AF02C402D902C4
S1130060EE02030318032D0311241FBECFE5D8E0CD
S1130070DEBFCDBF10E0A0E6B0E0EAE8F9E002C0E0
S113008005900D92A837B107D9F720E0A8E7B0E0B2
S113009001C01D92A937B207E1F70E9453000C94E6
S11300A0C3040C94000082E00E946E0182E00E946E
S11300B01E0281E00E941E020E94C10140E050E045
S11300C060EA70E40E946003F7CF813001F130F000
S11300D08230B1F1833009F44CC00895413059F4B1
S11300E02AB381E090E002C0880F991F6A95E2F775
S11300F0822B8ABB08952AB381E090E002C0880F66
S1130100991F6A95E2F7809582238ABB089541304E
S113011059F427B381E090E002C0880F991F6A95D3
S1130120E2F7822B87BB089527B381E090E002C0F9
S1130130880F991F6A95E2F78095822387BB0895FB
S1130140413059F424B381E090E002C0880F991F34
S11301506A95E2F7822B84BB089524B381E090E092
S113016002C0880F991F6A95E2F78095822384BBA9
S11301700895413059F421B381E090E002C0880F22
S1130180991F6A95E2F7822B81BB089521B381E020
S113019090E002C0880F991F6A95E2F78095822348
S11301A081BB0895813079F028F08230A9F0833042
S11301B0E9F025C089B390E002C0959587956A95CA
S11301C0E2F78170089586B390E002C09595879513
S11301D06A95E2F7817008958091130090E002C05F
S11301E0959587956A95E2F78170089580B390E0BC
S11301F002C0959587956A95E2F78170089580E02D
S11302000895813001F130F08230B1F1833009F486
S11302104CC00895413059F42BB381E090E002C002
S1130220880F991F6A95E2F7822B8BBB08952BB335
S113023081E090E002C0880F991F6A95E2F78095EB
S113024082238BBB0895413059F428B381E090E0B8
S113025002C0880F991F6A95E2F7822B88BB089524
S113026028B381E090E002C0880F991F6A95E2F7F5
S11302708095822388BB0895413059F425B381E0E9
S113028090E002C0880F991F6A95E2F7822B85BB24
S1130290089525B381E090E002C0880F991F6A9504
S11302A0E2F78095822385BB0895413059F422B347
S11302B081E090E002C0880F991F6A95E2F7822BD3
S11302C082BB089522B381E090E002C0880F991F99
S11302D06A95E2F78095822382BB0895CF93C82F55
S11302E041E060E00E94650041E061E08C2F0E94E3
S11302F0650041E062E08C2F0E94650041E063E00C
S11303008C2F0E94650041E060E08C2F0E94010167
S113031041E061E08C2F0E94010141E062E08C2FFA
S11303200E94010141E063E08C2F0E94010140E042
S113033064E08C2F0E94650040E065E08C2F0E94F1
S1130340650040E066E08C2F0E94650040E067E0B5
S11303508C2F0E94650041E064E08C2F0E94010113
S113036041E065E08C2F0E94010141E066E08C2FA2
S11303700E94010141E067E08C2F0E940101CF91AE
S11303800895BF92CF92DF92EF92FF920F931F9343
S1130390CF93DF93BB24B394DD24D39440C0ED2CDE
S11303A0F12CF701EC59FF4FC08040E06C2D809197
S11303B078000E940101D1E029C00D2F10E0F8015E
S11303C0E05AFF4FC0816C2F809178000E94D200C8
S11303D081111BC02FEF89EF90E0215080409040A5
S11303E0E1F700C000006C2F809178000E94D200D9
S11303F08823C9F3C701880F991F880F991F88594B
S11304009F4FFC01E00FF11FB080DF5FD530A8F2F1
S113041041E06C2D809178000E940101D39424E086
S11304202D1508F0BCCF8B2DDF91CF911F910F912B
S1130430FF90EF90DF90CF90BF900895CF93C82F97
S113044041E064E080E00E94650041E065E080E016
S11304500E94650041E066E080E00E94650041E0A2
S113046067E080E00E946500C13059F441E062E039
S113047081E00E94650041E062E081E00E940101A8
S113048023C0C23059F441E061E081E00E9465007C
S113049041E061E081E00E94010116C0C330A1F493
S11304A041E062E081E00E94650041E062E081E0B9
S11304B00E94010141E061E081E00E94650041E0A9
S11304C061E081E00E940101CF91089590E08A30BB
S11304D0910508F0D6C0FC01E65DFF4F0C94AE0414
S11304E040E064E080E00E94010140E065E080E0DB
S11304F00E94010140E066E080E00E94010140E0CA
S113050067E080E00E940101089541E064E080E03A
S11305100E94010140E065E080E00E94010140E0AA
S113052066E080E00E94010140E067E080E00E9414
S11305300101089540E064E080E00E94010141E08F
S113054065E080E00E94010140E066E080E00E94F6
S1130550010140E067E080E00E940101089541E06C
S113056064E080E00E94010141E065E080E00E94D7
S1130570010140E066E080E00E94010140E067E0A4
S113058080E00E940101089540E064E080E00E9460
S1130590010140E065E080E00E94010141E066E085
S11305A080E00E94010140E067E080E00E940101D8
S11305B0089541E064E080E00E94010140E065E0CC
S11305C080E00E94010141E066E080E00E940101B8
S11305D040E067E080E00E940101089540E064E0AB
S11305E080E00E94010141E065E080E00E94010199
S11305F041E066E080E00E94010140E067E080E0C5
S11306000E940101089541E064E080E00E9401013C
S113061041E065E080E00E94010141E066E080E0A5
S11306200E94010140E067E080E00E94010108951A
S113063040E064E080E00E94010140E065E080E089
S11306400E94010140E066E080E00E94010141E077
S113065067E080E00E940101089541E064E080E0E9
S11306600E94010140E065E080E00E94010140E059
S113067066E080E00E94010141E067E080E00E94C2
S113068001010895813029F440E062E00E940101F3
S11306900895823029F440E061E081E00E94010184
S11306A00895813029F441E062E00E940101089537
S11306B0823029F441E061E081E00E940101089563
S11306C0EF92FF920F931F93CF93DF93C82FCB0129
S11306D0BA0120E030E04AE754E40E9419040E9481
S11306E0C1037B01C43608F045C01DECC19F112D28
S11306F01124012F069506950695000F802F880F6B
S1130700880F080FC01B0C2F169516951695C0E080
S1130710D0E022C081E00E94420382E00E944203B2
S1130720812F0E94660281E00E9451038FE39CE9BD
S11307300197F1F700C0000081E00E944203802F7E
S11307400E94660282E00E9451038FE39CE90197B4
S1130750F1F700C0000021969701ADECBCEC0E94BB
S1130760B404929582958F7089279F708927C81742
S1130770D90780F2DF91CF911F910F91FF90EF90F5
S113078008950E94F80388F09F5798F0B92F99278D
S1130790B751B0F0E1F0660F771F881F991F1AF068
S11307A0BA95C9F714C0B13091F00E941204B1E0B7
S11307B008950C941204672F782F8827B85F39F0B6
S11307C0B93FCCF3869577956795B395D9F73EF401
S11307D090958095709561957F4F8F4F9F4F0895A9
S11307E057FD9058440F551F59F05F3F71F04795DE
S11307F0880F97FB991F61F09F3F79F087950895C3
S1130800121613061406551FF2CF4695F1DF08C0E1
S1130810161617061806991FF1CF869571056105FE
S113082008940895E894BB2766277727CB0197F9A6
S113083008950E942C040C949D040E948F0438F0A7
S11308400E94960420F0952311F00C9486040C94D5
S11308508C0411240C9413040E94F00370F3959FEC
S1130860C1F3950F50E0551F629FF001729FBB27A3
S1130870F00DB11D639FAA27F00DB11DAA1F649F3F
S11308806627B00DA11D661F829F2227B00DA11DF2
S1130890621F739FB00DA11D621F839FA00D611D78
S11308A0221F749F3327A00D611D231F849F600D99
S11308B0211D822F762F6A2F11249F5750409AF0C2
S11308C0F1F088234AF0EE0FFF1FBB1F661F771F4E
S11308D0881F91505040A9F79E3F510580F00C9419
S11308E086040C9413045F3FE4F3983ED4F3869596
S11308F077956795B795F795E7959F5FC1F7FE2BB9
S1130900880F911D9695879597F9089597F99F6794
S113091080E870E060E008959FEF80EC0895002483
S11309200A941616170618060906089500240A9450
S113093012161306140605060895092E0394000CD6
S113094011F4882352F0BB0F40F4BF2B11F460FF65
S113095004C06F5F7F4F8F4F9F4F0895EE0FFF1FAF
S11309600590F491E02D0994A29FB001B39FC001BA
S1130970A39F700D811D1124911DB29F700D811DC7
S10D09801124911D0895F894FFCF8F
S113098A04050607000102033132332B3435362DB0
S10B099A3738392A43303D2FA0
S9030000FC
