S01400004D6F68616E647365656E5F392E7372656376
S11300000C9475000C94E10D0C94080E0C942F0EB6
S11300100C9492000C9492000C94F80E0C94B01171
S11300200C94D10E0C94AA0E0C9492000C94920091
S11300300C9492000C9492000C9492000C949200F4
S11300400C9492000C9492000C9492000C949200E4
S11300500C949200AD043A05F80501060A0613064D
S11300601D07BD0526072F0721068205AB069B0841
S1130070AC08BD08CE08DF080809F008080908091B
S113008008090809080908090809080908090809E4
S113009008090809080908090809080908090809D4
S11300A008090809080908090809080908090809C4
S11300B008090809080908090809080908090809B4
S11300C008090809080908090809080908090809A4
S11300D00809080908090809080908090809080994
S11300E00809080908090809010911241FBECFE5F8
S11300F0D8E0DEBFCDBF14E0A0E6B0E0E2EFF6E268
S113010002C005900D92AE3EB107D9F725E0AEEEE0
S1130110B4E001C01D92AF33B207E1F70E94B10011
S11301200C9477130C94000080E00E94560B90937B
S1130130EF048093EE0420916000309161008217F7
S1130140930740F061E08FE00E94C40B81E080934C
S1130150F304089560E08FE00E94C40B1092F3044E
S11301600895CF93DF93CDB7DEB72B970FB6F894EE
S1130170DEBF0FBECDBF84E690E00E948D0961E032
S11301808BE00E94790C60E08AE10E94790C82E69F
S113019090E00E94530B0E941D0D0E94DE090E94F4
S11301A0B90A64E970E080E00E94CC0D63E080E06D
S11301B00E94B00D80E00E949E0D0E94560E60E0E9
S11301C081E00E94420B8CEC90E00E94280B8DEDA4
S11301D090E00E94900960E082E00E94420B80EF70
S11301E090E00E94280B8CEF90E00E9490092FEF82
S11301F033ED80E3215030408040E1F700C000003F
S11302000E943E0B80E00E94560B9093EF04809373
S1130210EE0420916000309161002817390720F422
S113022061E08FE00E94C40B80E590E00E94CB095E
S1130230813039F484E690E00E94CB09813009F4DE
S1130240DCC08AE091E00E94280B61E082E00E9419
S1130250420B84E191E00E94280B9FEFE3EDF0E371
S11302609150E040F040E1F700C000000E943E0BD6
S11302708FE191E00E94280B61E082E00E94420B32
S11302808EE291E00E94280B8FEF89838A838B830F
S11302908C839E012F5F3F4F790169011CE00E940E
S11302A0150A3FEF99EFE0E031509040E040E1F76C
S11302B000C00000882399F3F60181936F010E9426
S11302C0E00AFFEF25EA3EE0F15020403040E1F73C
S11302D000C00000612F82E00E94420B8AE20E946B
S11302E0E00A8FEF91EEE4E081509040E040E1F7C6
S11302F000C000001F5F103191F644E050E0BE01E1
S11303006F5F7F4F84E190E00E94AE0961E080E579
S113031090E00E94D2090E943E0B8AE391E00E9481
S1130320280BFFEF29E638E1F15020403040E1F797
S113033000C000000E943E0B85E491E00E94280B5F
S113034061E082E00E94420B84E591E00E94280B68
S11303501CE00E94150A9FEFE9EFF0E09150E040A5
S1130360F040E1F700C00000882399F3F70181937E
S11303707F010E94E00AFFEF25EA3EE0F1502040B1
S11303803040E1F700C00000612F82E00E94420B80
S11303908AE20E94E00A8FEF91EEE4E081509040FF
S11303A0E040E1F700C000001F5F103191F644E027
S11303B050E0BE016F5F7F4F88E290E00E94AE097B
S11303C061E084E690E00E94D2090E943E0B8AE339
S11303D091E00E94280BFFEF29E638E1F15020401C
S11303E03040E1F700C000000E943E0B60E08AE06C
S11303F091E00E94D2091B8605C08AE091E00E9428
S1130400CB098B8710E00F2EF3E3AF2EF02DCC2415
S1130410CA94CE0101961C01FE013596FA87E9873C
S1130420D82EE32C5984BA841092F20460E08EE151
S11304300E94C40B60E08BE10E94C40BFFEF23ED2C
S113044030E3F15020403040E1F700C0000000E00C
S1130450912C612CF62C5AC28B858130C9F50E94EF
S11304603E0B80E691E00E94280B8EE691E00E940C
S1130470900961E082E00E94420B8EE791E00E94C5
S1130480280B8EE891E00E94900961E08CE10E94C3
S1130490C40B61E083E00E94C40B94E5EDECFDE243
S11304A023E09150E040F0402040D9F700C000C064
S11304B00000662D83E00E94C40B662D8CE10E942F
S11304C0C40B662D8AE091E00E94D20900E06B869D
S11304D00E943E0B80EA91E00E94280B61E082E0DA
S11304E00E94420B80EB91E00E94280B91100EC0F9
S11304F00E94150A982E3FEF89EF90E0315080401A
S11305009040E1F700C00000992091F380ED890D3F
S1130510823088F00E943E0B82EC91E00E94280B0E
S1130520EFEFF3ED20E3E150F0402040E1F700C0AD
S11305300000962CEBC1CD82CE82CF82C886C982C0
S1130540CA82CB82CC8230E3931609F4EEC081E3F5
S1130550981609F4D6C1DAC10E943E0B8FEC91E0E3
S11305600E94280B8AED91E00E94900961E082E0EC
S11305700E94420B87EE91E00E94280B83EF91E0EA
S11305800E9490099FEFE3ECF9E09150E040F040C5
S1130590E1F700C000004E0125E0820E911C0F2EF1
S11305A0FCE07F2EF02D32C00E944708182F3FEF49
S11305B089EF90E0315080409040E1F700C00000A6
S11305C0112391F3F40111934F01812F0E94E00A4A
S11305D0FFEF25EA3EE0F15020403040E1F700C053
S11305E00000672D82E00E94420B8AE20E94E00A2A
S11305F08FEF91EEE4E081509040E040E1F700C0DD
S1130600000073941F2DF0E17F1619F0112361F29D
S1130610D9CF44E050E0B10184E190E00E94960912
S113062044E050E0B101CE0105960E9430080197E4
S113063009F045C081E08093F2040E943E0B81E002
S113064092E00E94280B8CE092E00E94900961E005
S113065082E00E94420B8FEC91E00E94280B8AED0D
S113066091E00E9490092FEF39E688E12150304053
S11306708040E1F700C0000061E08EE10E94C40BFD
S11306806F2D81E00E94420B89E192E00E94280BC9
S113069086E292E00E94900960E070E084EB92E4CC
S11306A00E945D0B9FEFE9E6F8E19150E040F040D5
S11306B0E1F700C000000E943E0B00E034C00F5F71
S11306C0F092F2040E943E0B85E392E00E94280B14
S11306D080E492E00E94900961E082E00E94420B73
S11306E08DE492E00E94280B89E592E00E94900933
S11306F08A2D801B0E94E00A2FEF33ED80E3215006
S113070030408040E1F700C000000E943E0B0330FF
S113071050F061E08AE091E00E94D209162D962CF7
S113072091E09B87F3C09F2C1F2D8091F2048130B0
S113073009F012CFEBC00E943E0B87E692E00E94C4
S1130740280B61E082E00E94420B82E792E00E9463
S1130750280BEFEFF3EC29E0E150F0402040E1F703
S113076000C000004E0135E0830E911C0F2EFCE00A
S11307707F2EF02D0E94150A9FEFE9EFF0E09150D3
S1130780E040F040E1F700C00000882399F3F40151
S113079081934F010E94E00AFFEF25EA3EE0F15009
S11307A020403040E1F700C00000672D82E00E9445
S11307B0420B8AE20E94E00A8FEF91EEE4E081505E
S11307C09040E040E1F700C000007394F0E17F1234
S11307D0D1CF44E050E06D2D7E2D88E290E00E9460
S11307E0960944E050E06D2D7E2D852D9B2D0E94B1
S11307F03008019709F059C082E08093F2040E9406
S11308003E0B8EE792E00E94280B6F2D81E00E9440
S1130810420B8FE892E00E9490092FEF33EC89E0BD
S1130820215030408040E1F700C000000E9447089A
S1130830182F813329F50E943E0B81E092E00E943B
S1130840280B61E082E00E94420B87E692E00E945E
S1130850280B60E070E084EB92E40E945D0B9FEF54
S1130860E9E6F8E19150E040F040E1F700C0000013
S113087061E08BE10E94C40B0E943E0B00E040C08B
S11308808233F1F581EB92E00E94280B2FEF39E6D9
S113089088E1215030408040E1F700C00000198613
S11308A0F092F2049F2C1F2D13CE0F5FF092F204EE
S11308B00E943E0B87EC92E00E94280B61E082E0EC
S11308C00E94420B8DE492E00E94280B8A2D801B2B
S11308D00E94E00A9FEFE3EDF0E39150E040F04026
S11308E0E1F700C000000E943E0B033048F061E0D5
S11308F08AE091E00E94D209962C21E02B8706C061
S11309009F2C8091F204823009F015CF8091F2047B
S1130910882309F4A1CDFF24F3940F2EFBE07F2E4E
S1130920F02D0F2EF9E06F2EF02D0F2EFAE08F2E02
S1130930F02D6894992493F80F2EF6E04F2EF02DA5
S11309400F2D62C3802F90E0FC013197ED30F1054B
S1130950D8F7E65DFF4F0C942F130E943E0B82EDF7
S113096092E00E94280B8091F2048130D1F482EE4F
S113097092E00E9490093FEF81EE94E03150804074
S11309809040E1F700C0000084EF92E00E949009DB
S113099061E082E00E94420B85E093E00E94280B14
S11309A009C08230D1F661E00E94420B84E193E0F9
S11309B00E94280B8091F204823061F582E090E07D
S11309C00E943908EFEFF1EE24E0E150F0402040BE
S11309D0E1F700C00000813309F41BC3823309F43A
S11309E01AC3833309F419C3843309F418C388235D
S11309F009F4B3CF0E943E0B84E293E00E94280BDB
S1130A003FEF89E698E1315080409040E1F700C023
S1130A100000A3CF813009F0A0CF81E090E00E94D4
S1130A204708182FEFEFF9EF20E0E150F0402040A5
S1130A30E1F700C00000813309F4F3C2823309F402
S1130A40F2C2833309F4F1C2843309F4F0C2882377
S1130A5009F483CF0E943E0B84E293E00E94280BAA
S1130A603FEF89E698E1315080409040E1F700C0C3
S1130A70000073CF0E943E0B80E393E00E94900934
S1130A80EFEFF9EF20E0E150F0402040E1F700C043
S1130A90000082E493E00E94900985E593E00E94BF
S1130AA0280B61E082E00E94420B86E693E00E94FC
S1130AB0280B8091F20490E00E944708182F81339C
S1130AC009F4B7C2823309F4B6C2833309F4B5C258
S1130AD0843309F4B4C2882369F20E943E0B84E291
S1130AE093E00E94280B3FEF89E698E13150804063
S1130AF09040E1F700C000008FEC810F843008F0D3
S1130B00B9CF82C287E793E00E94900988E893E016
S1130B100E9490090E943E0B81E993E00E94280BF9
S1130B2061E082E00E94420B80EA93E00E94280B7D
S1130B308091F20490E00E944708182F813309F451
S1130B4080C2833309F47FC2823309F47EC28823CE
S1130B50C9F20E943E0B84E293E00E94280BEFEF5F
S1130B60F9E628E1E150F0402040E1F700C0000040
S1130B708FEC810F833030F647C20E943E0B88EA27
S1130B8093E00E9490098CEB93E00E9490098FEC13
S1130B9093E00E94280B61E082E00E94420B82EE07
S1130BA093E00E94280B8091F20490E00E94470891
S1130BB0182F813309F44BC2823309F44AC28333B8
S1130BC009F449C28823C9F20E943E0B84E293E0EF
S1130BD00E94280B3FEF89E698E131508040904015
S1130BE0E1F700C000008FEC810F833030F60CC2B7
S1130BF06091F20470E083E090E00E94550801E007
S1130C0003C26091F20470E084E090E00E94550811
S1130C1001E0FAC16091F20470E085E090E00E9486
S1130C20550801E0F1C16091F20470E086E090E0C3
S1130C300E9455088091F204823009F4E4C102E074
S1130C40E3C10E9483090E943E0B83EF93E00E945C
S1130C50900986E094E00E94280B60E082E00E9404
S1130C60420B8091F20490E00E944708182F8A33C7
S1130C7080F00E943E0B84E293E00E94280BEFEF89
S1130C80F9E628E1E150F0402040E1F700C000001F
S1130C90D8CF0E94E00A8091F20490E00E944708B5
S1130CA0082F80ED800F8A3080F00E943E0B84E292
S1130CB093E00E94280B3FEF89E698E13150804091
S1130CC09040E1F700C00000BCCF802F0E94E00AF2
S1130CD08091F20490E00E944708F82E80ED8F0D79
S1130CE08A3080F00E943E0B84E293E00E94280B3D
S1130CF0EFEFF9E628E1E150F0402040E1F700C0D1
S1130D0000009FCF8F2D0E94E00A000F802F880FD4
S1130D10880F080F802F34E6139F800D1124F80EDE
S1130D200E9483098F2D90E00E948B090E943E0B44
S1130D3087E194E00E94280B8FEF99E6E8E1815067
S1130D409040E040E1F700C00000FF2009F479CFB3
S1130D500CE010E059C10E943E0B86E294E00E9430
S1130D60900987E394E00E94280B60E082E00E94EF
S1130D70420B8091F20490E00E944708182F8333BD
S1130D8080F00E943E0B84E293E00E94280BFFEF68
S1130D9029E638E1F15020403040E1F700C000007E
S1130DA046C0813309F581E30E94E00A60E070E007
S1130DB0CB010E945D0B8FEF99E6E8E181509040F2
S1130DC0E040E1F700C0000060E070E084E393E4F9
S1130DD00E945D0BFFEF29E638E1F15020403040DE
S1130DE0E1F700C0000039C1823309F582E30E94B3
S1130DF0E00A60E070E0CB010E945D0B8FEF99E6A2
S1130E00E8E181509040E040E1F700C0000060E07C
S1130E1070E084E393E40E945D0BFFEF29E638E180
S1130E20F15020403040E1F700C0000016C18FEFC0
S1130E30810F823008F48FCFE7C06091F20470E034
S1130E4087E090E00E94550802E0DEC06091F20461
S1130E5070E089E090E00E945508092DD5C01092F9
S1130E60F0040E943E0B86E494E00E94280B8FED70
S1130E700E94E00A83E40E94E00A672D81E00E9458
S1130E80420B8FEF93ECE9E081509040E040E1F7B2
S1130E9000C00000682D81E00E94420B0E944708B8
S1130EA0182FFFEF29EF30E0F15020403040E1F7F8
S1130EB000C0000000ED080F0A30A0F00E943E0BB5
S1130EC084E293E00E94280B83E594E00E94900959
S1130ED08FEF99E6E8E181509040E040E1F700C0EF
S1130EE000008AC00E94E00A0E944708182FFFEF02
S1130EF029EF30E0F15020403040E1F700C000001D
S1130F000F2EF0EDFF2EF02DF80E89E08F15A0F4D2
S1130F100E943E0B84E293E00E94280B83E594E058
S1130F200E9490099FEFE9E6F8E19150E040F0401B
S1130F30E1F700C0000060C0812F0E94E00A000FAA
S1130F40802F880F880F080FF00EF092F0042FEF17
S1130F5033EC89E0215030408040E1F700C00000CC
S1130F600E943E0B81E694E00E94280B81E794E006
S1130F700E9490099FEFE9E6F8E19150E040F040CB
S1130F80E1F700C000008091F00490E02091EE04AD
S1130F903091EF048217930728F461E08FE00E94F8
S1130FA0C40B04C060E08FE00E94C40B80E00E9488
S1130FB0560B9093EF048093EE04482D64E375E0A0
S1130FC00E94421360E082E00E94420B83E894E0B6
S1130FD00E94280B662D82E00E94420B84E395E078
S1130FE00E94280B2FEF39E688E1215030408040E1
S1130FF0E1F700C0000010E08091F004882309F4B8
S113100030CF092D01C001E09B85913009F09ACCC5
S11310100BCA03E0F9CF04E0F7CF05E0F5CF042DC8
S1131020F3CF03E0F1CF04E0EFCF05E0EDCF02E032
S1131030EBCF042DE9CF07E0E7CF092DE5CF0CE096
S1131040E3CF072DE1CF0DE0DFCF01E0DDCF082DA9
S1131050DBCF062DD9CF02E0D7CF0CE010E0D4CF00
S113106050E00E94351321E0892B09F020E0822F03
S113107008950E94150A2FEF39EF90E02150304077
S11310809040E1F700C00000882399F308950E947E
S113109093092FEF39EF90E0215030409040E1F771
S11310A000C00000882399F30895CF92DF92EF9255
S11310B0FF920F931F93CF93DF93C82F062FD0E097
S11310C010E0C82ED12C0E943E0BC530B1F028F49C
S11310D0C33049F0C43061F024C0C730C1F090F08F
S11310E0C930D1F01EC08CE894E00E94280B23C0C4
S11310F085E994E00E94280B2FC08EE994E00E94B9
S1131100280B3BC087EA94E00E94280B47C080EB81
S113111094E00E94280B53C086EB94E00E94280BB5
S11311205FC0F6013397EE33F10508F071C0E95C56
S1131130FF4F0C942F1381E00E94460C813031F450
S113114083EC94E00E94280B11E062C086EC94E0EA
S11311500E94280B11E05CC08CE00E94460C813098
S113116031F483EC94E00E94280B1CE051C086EC1F
S113117094E00E94280B1CE04BC08DE00E94460CBA
S1131180813031F483EC94E00E94280B1DE040C0D0
S113119086EC94E00E94280B1DE03AC08EE00E9489
S11311A0460C813031F483EC94E00E94280B1EE05D
S11311B02FC086EC94E00E94280B1EE029C08FE12A
S11311C00E94460C813031F483EC94E00E94280B99
S11311D01FE11EC086EC94E00E94280B1FE118C09A
S11311E08FE00E94460C813031F483EC94E00E943D
S11311F0280B1FE00DC086EC94E00E94280B1FE032
S113120007C08091F00490E09093610080936000A7
S113121061E082E00E94420B8AEC94E00E94280B79
S11312208091F204823081F5802F0E9439082FEFDB
S113123031EE94E0215030409040E1F700C00000CE
S1131240813329F461E0812F0E94C40B53C082339F
S113125029F460E0812F0E94C40B4CC0803309F450
S113126049C0882309F441C00E943E0B84E293E004
S11312700E94280B2FEF39E688E12150304080404E
S1131280E1F700C0000031C0813079F58BED94E0C6
S11312900E9490098091F2040E9447088093F1040F
S11312A0813339F461E0812F0E94C40BD091F104A1
S11312B01CC0823339F460E0812F0E94C40BD091AA
S11312C0F10413C08033B1F0882379F00E943E0BFF
S11312D084E293E00E94280B9FEF29E638E19150C5
S11312E020403040E1F700C0000080ED8D0F8330D6
S11312F008F0E9CEDF91CF911F910F91FF90EF900D
S1131300DF90CF90089561E08BE00E94790C83B761
S1131310896683BF08958CBF08950E941F0F0895A6
S11313200E94990F08950E94AF0F0895E199FECF8E
S11313304115510591F0460F571FFB019C01261BD7
S1131340370BB9019B012E0F3F1F3FBB2EBBE09A09
S11313509DB39193E417F507A9F708954115510535
S1131360C9F0460F571FFB019C01261B370BB9011F
S1131370E199FECF9B012E0F3F1F3FBB2EBBE09A8E
S11313802DB39191291719F09DBBE29AE19AE417C4
S1131390F50771F70895E199FECF9FBB8EBBE09AE4
S11313A08DB30895E199FECF9FBB8EBBE09A8DB3B8
S11313B0861719F06DBBE29AE19A0895EF92FF92B5
S11313C00F931F93CF93DF93CCE7D0E00F2EF0E879
S11313D0EF2EF0E0FF2EF02D8E0160E089910E9447
S11313E0790C61E0F80180810E94C40BCE15DF0501
S11313F099F7C0E8D0E00F2EF4E8EF2EF0E0FF2ECE
S1131400F02D8E0161E089910E94790C61E0F80170
S113141080810E94C40BCE15DF0599F7DF91CF912F
S11314201F910F91FF90EF9008956F927F928F928A
S11314309F92AF92BF92CF92DF92EF92FF920F935F
S11314401F93CF93DF9300E810E0C12CD12C460109
S1131450580160E0F80180810E94C40BCCE7D0E021
S1131460612C712C730189910E94460C811114C066
S1131470E301C458DF4F88810E94460C8823D9F3C6
S1131480C401880F991F880F991F84599F4FFC012D
S1131490EE0DFF1D808116C0FFEF6F1A7F0A84E0F6
S11314A068167104F9F60F5F1F4F61E0F501808142
S11314B00E94C40BFFEFCF1ADF0A84E0C816D104E0
S11314C031F680E0DF91CF911F910F91FF90EF9063
S11314D0DF90CF90BF90AF909F908F907F906F9050
S11314E00895CF93C82F60E089E00E94C40B80E088
S11314F00E94FB0C8F709C2F907F682F692B80E0DB
S11315000E940D0D60E088E00E94C40B8FE891E01A
S11315100197F1F700C0000061E088E00E94C40B6D
S11315208FE19EE40197F1F700C0000080E00E9483
S1131530FB0C8F7090E1C99F90011124682F622BDE
S113154080E00E940D0D60E088E00E94C40B8FE8EB
S113155091E00197F1F700C0000061E088E00E948B
S1131560C40B8FE39FE10197F1F700C00000CF9116
S1131570089560E08AE00E94C40B61E088E00E9464
S1131580C40B2FEF89EF90E0215080409040E1F7A9
S113159000C0000083E30E94710A82E30E94710A82
S11315A088E20E94710A86E00E94710A8FE00E941C
S11315B0710A8FE39FE10197F1F700C000000895DD
S11315C0CF93C82F61E089E00E94C40B80E00E94A1
S11315D0FB0C8F709C2F907F682F692B80E00E94FA
S11315E00D0D60E088E00E94C40B8FE891E0019744
S11315F0F1F700C0000061E088E00E94C40B8FE1B5
S11316009EE40197F1F700C0000080E00E94FB0C0B
S11316108F7090E1C99F90011124682F622B80E0A4
S11316200E940D0D60E088E00E94C40B8FE891E0F9
S11316300197F1F700C0000061E088E00E94C40B4C
S11316408FE39FE10197F1F700C00000CF91089567
S11316500F931F93CF93FC018081882359F08F014E
S1131660C0E00E94E00ACF5FF801EC0FF11D808119
S11316708111F7CFCF911F910F91089581E00E94BE
S1131680710A0895813019F0823039F00895862F57
S11316908F7080680E94710A0895862F8F70806C05
S11316A00E94710A08950E94A90B08950E94B60B26
S11316B096958795969587950895CF92DF92EF92A8
S11316C0FF92CF93DF93CDB7DEB728970FB6F89488
S11316D0DEBF0FBECDBF6B017C0161E08DE10E94D6
S11316E0790C67E873E182E00E949B0E2CE137ECF1
S11316F041EB5FE3C701B6010E94A01220E030E095
S11317004AE753E40E94B41120E030E040E85FE38C
S11317100E94B3110E94201280E00E949B0E88E078
S1131720E4ECF0E0DE01119601900D928A95E1F768
S1131730CE0101960E945A0E28960FB6F894DEBF89
S11317400FBECDBFDF91CF91FF90EF90DF90CF9090
S11317500895FC0190819295990F990F907C97B907
S113176096B18181892B86B9379A089597B1907E75
S11317708F71892B87B9369A349BFECF349A84B102
S113178025B190E0922B0895982F977086958695B1
S11317908695813021F130F08230F1F1833009F403
S11317A058C00895613069F44BB321E030E0B901C9
S11317B002C0660F771F9A95E2F7CB01842B8BBB8F
S11317C008954BB321E030E0B90102C0660F771FE2
S11317D09A95E2F7CB01809584238BBB0895613001
S11317E069F448B321E030E0B90102C0660F771F05
S11317F09A95E2F7CB01842B88BB089548B321E086
S113180030E0B90102C0660F771F9A95E2F7CB0169
S11318108095842388BB0895613069F445B321E041
S113182030E0B90102C0660F771F9A95E2F7CB0149
S1131830842B85BB089545B321E030E0B90102C093
S1131840660F771F9A95E2F7CB018095842385BBB9
S11318500895613069F442B321E030E0B90102C077
S1131860660F771F9A95E2F7CB01842B82BB08950C
S113187042B321E030E0B90102C0660F771F9A95A8
S1131880E2F7CB018095842382BB0895282F27702B
S1131890869586958695813079F028F08230A9F076
S11318A08330E1F024C089B390E002C09595879518
S11318B02A95E2F78170089586B390E002C0959569
S11318C087952A95E2F78170089583B390E002C06A
S11318D0959587952A95E2F78170089580B390E0F5
S11318E002C0959587952A95E2F78170089580E066
S11318F00895982F9770869586958695813021F165
S113190030F08230F1F1833009F458C00895613029
S113191069F44AB321E030E0B90102C0660F771FD1
S11319209A95E2F7CB01842B8ABB08954AB321E050
S113193030E0B90102C0660F771F9A95E2F7CB0138
S1131940809584238ABB0895613069F447B321E00C
S113195030E0B90102C0660F771F9A95E2F7CB0118
S1131960842B87BB089547B321E030E0B90102C05E
S1131970660F771F9A95E2F7CB018095842387BB86
S11319800895613069F444B321E030E0B90102C044
S1131990660F771F9A95E2F7CB01842B84BB0895D9
S11319A044B321E030E0B90102C0660F771F9A9575
S11319B0E2F7CB018095842384BB0895613069F4F8
S11319C041B321E030E0B90102C0660F771F9A9558
S11319D0E2F7CB01842B81BB089541B321E030E0D1
S11319E0B90102C0660F771F9A95E2F7CB01809583
S11319F0842381BB0895813041F028F0823039F08E
S1131A00833039F008C08BB3089588B3089585B343
S1131A10089582B3089580E00895813041F028F05C
S1131A20823039F0833039F008956BBB089568BB78
S1131A30089565BB089562BB0895E4E8F0E080E092
S1131A4041E050E0282F2770982F9695969596950B
S1131A50913009F130F09230C1F1933009F44FC064
S1131A6067C09081913059F49AB3BA0102C0660FED
S1131A70771F2A95E2F79B01292B2ABB59C03AB359
S1131A80BA0102C0660F771F2A95E2F7962F909548
S1131A9093239ABB4DC09081913059F497B3BA0106
S1131AA002C0660F771F2A95E2F79B01292B27BBFB
S1131AB03FC037B3BA0102C0660F771F2A95E2F719
S1131AC0962F9095932397BB33C09081913059F40E
S1131AD094B3BA0102C0660F771F2A95E2F79B01FF
S1131AE0292B24BB25C034B3BA0102C0660F771F6B
S1131AF02A95E2F7962F9095932394BB19C0908171
S1131B00913059F491B3BA0102C0660F771F2A9538
S1131B10E2F79B01292B21BB0BC031B3BA0102C0F0
S1131B20660F771F2A95E2F7962F9095932391BB22
S1131B308F5F3296803209F085CF0895813041F06D
S1131B4018F0823049F008958BB780648BBF0895F4
S1131B508BB780688BBF08958BB780628BBF089565
S1131B60813041F018F0823059F0089585B7682B20
S1131B7065BF089585B7660F660F682B65BF089526
S1131B80623021F484B78F7B84BF0895633019F4E5
S1131B9084B7806484BF0895813049F018F082309E
S1131BA059F008957093F9046093F80408957093BC
S1131BB0F7046093F60408957093F5046093F404B5
S1131BC008951F920F920FB60F9211242F933F93F3
S1131BD04F935F936F937F938F939F93AF93BF9331
S1131BE0EF93FF93E091F804F091F9040995FF91C4
S1131BF0EF91BF91AF919F918F917F916F915F9181
S1131C004F913F912F910F900FBE0F901F901895F9
S1131C101F920F920FB60F9211242F933F934F935D
S1131C205F936F937F938F939F93AF93BF93EF9340
S1131C30FF93E091F604F091F7040995FF91EF9179
S1131C40BF91AF919F918F917F916F915F914F91D0
S1131C503F912F910F900FBE0F901F9018951F92D8
S1131C600F920FB60F9211242F933F934F935F93CC
S1131C706F937F938F939F93AF93BF93EF93FF9350
S1131C80E091F404F091F5040995FF91EF91BF916F
S1131C90AF919F918F917F916F915F914F913F9100
S1131CA02F910F900FBE0F901F9018958FB78068DB
S1131CB08FBF0895FC019FB580818370892B8FBDF0
S1131CC09EB5808186958695880F880F880F892B0D
S1131CD08EBD9EB58181892B8EBD2FB5928130E456
S1131CE0939FC0011124822B8FBD2FB5938130E1C6
S1131CF0939FC0011124822B8FBD99B78481880FD3
S1131D00880F892B89BF99B78681880F880F880F20
S1131D10892B89BF29B7958130E1939FC001112494
S1131D20822B89BF29B7978130E2939FC001112488
S1131D30822B89BF0895813039F018F0823039F050
S1131D4008957BBD6ABD089579BD68BD089577BDCA
S1131D5066BD08951F920F920FB60F9211242F9310
S1131D603F934F935F936F937F938F939F93AF931F
S1131D70BF93EF93FF93E091FE04F091FF04099564
S1131D80FF91EF91BF91AF919F918F917F916F914F
S1131D905F914F913F912F910F900FBE0F901F9025
S1131DA018951F920F920FB60F9211242F933F9301
S1131DB04F935F936F937F938F939F93AF93BF934F
S1131DC0EF93FF93E091FC04F091FD040995FF91DA
S1131DD0EF91BF91AF919F918F917F916F915F919F
S1131DE04F913F912F910F900FBE0F901F90189518
S1131DF01F920F920FB60F9211242F933F934F937C
S1131E005F936F937F938F939F93AF93BF93EF935E
S1131E10FF93E091FA04F091FB040995FF91EF918F
S1131E20BF91AF919F918F917F916F915F914F91EE
S1131E303F912F910F900FBE0F901F901895CF9345
S1131E40DF93EC018A818130E9F4599A2881398140
S1131E50C901A0E0B0E0880F991FAA1FBB1F880F1B
S1131E60991FAA1FBB1F9C01AD01220F331F441FE2
S1131E70551F60E074E284EF90E00E940D1321503E
S1131E80310920C0599828813981C901A0E0B0E006
S1131E90880F991FAA1FBB1F880F991FAA1FBB1F5A
S1131EA09C01AD01220F331F441F551F220F331F06
S1131EB0441F551F60E074E284EF90E00E940D130C
S1131EC02150310929B930BD9B81973029F4529AA8
S1131ED080B5866880BD05C080B5990F8068892B60
S1131EE080BD20B59D8130E1939FC0011124922FC4
S1131EF09068892B80BD80B59C81990F990F990FAB
S1131F008068892B80BD9AB18E81880F880F880FD5
S1131F10892B8AB92AB19F8130E1939FC001112492
S1131F20822B8AB9DF91CF9108955D9BFECF8CB946
S1131F3008950F931F93CF93FC018081882359F058
S1131F408F01C0E00E94950FCF5FF801EC0FF11DE7
S1131F5080818111F7CFCF911F910F9108955F9BDD
S1131F60FECF8CB10895E0910C05F0910D058081B0
S1131F70811107C08FEF9FEF9093020580930105B5
S1131F800895E0910C05F0910D050580F681E02D92
S1131F908081918190930205809301050895EF92C9
S1131FA0FF920F931F93CF93DF93809100058111CC
S1131FB004C1C0910805D09109057E018FEFE81A8C
S1131FC0F80AF0920905E0920805E114F104B9F465
S1131FD080910C0590910D0520910A0530910B0517
S1131FE030930D0520930C0590930B0580930A05FF
S1131FF0809103058F5F809303050E94B30F809146
S1132000010590910205E816F90610F480E0B9C0C4
S113201080E061E0E0910C05F0910D059081911153
S113202007C02FEF3FEF3093020520930105A9C0AD
S1132030E0910C05F0910D050580F681E02D0680F8
S1132040F781E02D22813381E216F30628F43093E0
S113205002052093010595C0A285B38524813581AD
S113206046815781E9015D834C8326813781448110
S11320705581E9015B834A83AF014E5F5F4F11963F
S11320802D913C9112972417350731F4268137811D
S113209012963C932E931197138612869C9191501D
S11320A09C93A489B589109719F1268537850089F1
S11320B01189E9011D830C832089318906851785DF
S11320C0E9011B830A8311960D911C9112979F01BC
S11320D0245F3F4F0217130731F420893189129688
S11320E03C932E931197158A148A9C9191509C933A
S11320F0268990910705921710F42093070530E084
S1132100D901AA0FBB1FAA0FBB1FAA0FBB1F2A0FFF
S11321103B1FD901A25FBA4F11960D90BC91A02D1F
S1132120B583A48314962D913C9115973783268308
S113213014962D913C911597E9015B834A8315967A
S11321405C934E931497A689B0E09D01220F331F30
S1132150220F331F220F331FA20FB31FA25FBA4FE8
S1132160B387A2879C919F5F9C93A0913205B09105
S11321703305268956969C91921708F04BCF862FEB
S113218049CFE0913205F0913305268930E0F90119
S1132190EE0FFF1FEE0FFF1FEE0FFF1F2E0F3F1F4F
S11321A0F901E25FFA4F9081923008F081E090915A
S11321B00405992361F081E00AC08091050590919E
S11321C006050196909306058093050580E0DF914E
S11321D0CF911F910F91FF90EF900895809100058A
S11321E0882321F081E0809304050895109204056A
S11321F020910705822F90E0FC01EE0FFF1FEE0FE8
S1132200FF1FEE0FFF1FE80FF91FE25FFA4F308147
S1132210311111C02150822F90E0FC01EE0FFF1FFD
S1132220EE0FFF1FEE0FFF1FE80FF91FE25FFA4FDB
S11322303081332379F3AC01440F551F440F551FEC
S1132240440F551F480F591FDA01A25FBA4F119668
S1132250ED91FC9112970280F381E02D1296FC938C
S1132260EE9311974F5E5A4FE417F50729F4428114
S11322705381FD0152834183FC01EE0FFF1FEE0FDA
S1132280FF1FEE0FFF1F8E0F9F1FFC01E25FFA4F2F
S11322900180F281E02D86819781909333058093AC
S11322A032052093070508950F920FB6F8940F9204
S11322B01F9211242F923F924F925F926F927F92BE
S11322C08F929F92AF92BF92CF92DF92EF92FF9242
S11322D00F931F932F933F934F935F936F937F932A
S11322E08F939F93AF93BF93CF93DF93EF93FF931A
S11322F0A0913205B09133050DB60D920EB60D9234
S11323000E94CF0F81110E94EE10A0913205B0916E
S11323103305CD91CDBFDD91DEBFFF91EF91DF910C
S1132320CF91BF91AF919F918F917F916F915F9169
S11323304F913F912F911F910F91FF90EF90DF905C
S1132340CF90BF90AF909F908F907F906F905F9051
S11323504F903F902F901F900F900FBE0F900895B5
S11323600E94541118955058BB27AA270E94CB11DC
S11323700C9466120E94581238F00E945F1220F0EA
S113238039F49F3F19F426F40C9455120EF4E09599
S1132390E7FB0C944F12E92F0E94771258F3BA17F7
S11323A0620773078407950720F079F4A6F50C9467
S11323B099120EF4E0950B2EBA2FA02D0B01B90142
S11323C090010C01CA01A0011124FF27591B99F0A7
S11323D0593F50F4503E68F11A16F040A22F232FB3
S11323E0342F4427585FF3CF469537952795A79503
S11323F0F0405395C9F77EF41F16BA0B620B730BAA
S1132400840BBAF09150A1F0FF0FBB1F661F771F1A
S1132410881FC2F70EC0BA0F621F731F841F48F4CF
S1132420879577956795B795F7959E3F08F0B0CF58
S11324309395880F08F09927EE0F9795879508953F
S11324400E947F1288F09F5798F0B92F9927B751AF
S1132450B0F0E1F0660F771F881F991F1AF0BA9544
S1132460C9F714C0B13091F00E949912B1E00895F7
S11324700C949912672F782F8827B85F39F0B93FE9
S1132480CCF3869577956795B395D9F73EF49095F7
S11324908095709561957F4F8F4F9F4F089597F961
S11324A09F6780E870E060E008959FEF80EC0895F6
S11324B000240A941616170618060906089500241F
S11324C00A9412161306140605060895092E039499
S11324D0000C11F4882352F0BB0F40F4BF2B11F40D
S11324E060FF04C06F5F7F4F8F4F9F4F089557FD6C
S11324F09058440F551F59F05F3F71F04795880F6E
S113250097FB991F61F09F3F79F087950895121604
S113251013061406551FF2CF4695F1DF08C01616B0
S113252017061806991FF1CF869571056105089461
S11325300895E894BB2766277727CB0197F9089578
S11325400E94B3120C9466120E94581238F00E9432
S11325505F1220F0952311F00C944F120C94551235
S113256011240C949A120E94771270F3959FC1F370
S1132570950F50E0551F629FF001729FBB27F00D2D
S1132580B11D639FAA27F00DB11DAA1F649F662782
S1132590B00DA11D661F829F2227B00DA11D621FD1
S11325A0739FB00DA11D621F839FA00D611D221F8B
S11325B0749F3327A00D611D231F849F600D211D6F
S11325C0822F762F6A2F11249F5750409AF0F1F0F2
S11325D088234AF0EE0FFF1FBB1F661F771F881F5B
S11325E091505040A9F79E3F510580F00C944F1232
S11325F00C949A125F3FE4F3983ED4F38695779552
S11326006795B795F795E7959F5FC1F7FE2B880F00
S1132610911D9695879597F90895A1E21A2EAA1B04
S1132620BB1BFD010DC0AA1FBB1FEE1FFF1FA2177E
S1132630B307E407F50720F0A21BB30BE40BF50B7B
S1132640661F771F881F991F1A9469F76095709504
S1132650809590959B01AC01BD01CF010895EE0FCB
S1132660FF1F0590F491E02D0994FB01DC0104C0E7
S11326708D910190801921F441505040C8F7881B76
S1132680990B0895BB274A3031F4992322F4BDE213
S1132690909581959F4F0C944E13BB27FB015527B2
S11326A0AA27880F991FAA1FA41710F0A41B8395AB
S11326B05051B9F7A05DAA3308F0A95DA193009722
S11326C079F7B111B1931192CB010C946713DC012A
S11326D0FC01672F71917723E1F7329704C07C9155
S11326E06D9370836291AE17BF07C8F30895F89491
S10526F0FFCF16
S11326F21800030780250003000001013738392F31
S11327023435362A3132332D43303D2B1415161706
S11327121011121301010101010101010101010161
S11327220101010101010101010101010101010193
S11327320101010101010101010101010101010183
S11327420101010101010101010101010101010173
S1132752010101010E0502000000000057656C63CF
S11327626F6D6520746F20736D6172740057656CB0
S1132772636F6D6520746F20736D6172740A0D004E
S1132782686F6D652073797374656D00686F6D652C
S11327922073797374656D0A0D004C6F67696E203E
S11327A2666F720066697273742074696D65005392
S11327B265742041646D696E2070617373004164B5
S11327C26D696E20706173733A00506173732053A4
S11327D2617665640053657420477565737420508F
S11327E261737300477565737420506173733A00A3
S11327F24C6F67696E20626C6F636B6564004C6F2B
S113280267696E20626C6F636B65640A0D007761A1
S11328126974203230207365636F6E64730077616C
S11328226974203230207365636F6E64730A0D001D
S113283253656C656374206D6F6465203A0A0D00FC
S1132842303A41646D696E20313A47756573740A92
S11328520D0057726F6E6720696E7075742E004199
S1132862646D696E206D6F64650041646D696E20EC
S11328726D6F64650A0D00456E7465722050617354
S1132882733A00456E74657220506173733A0A0D8F
S113289200526967687420706173730052696768D3
S11328A27420706173730A0D00446F6F72206F702D
S11328B2656E696E6700446F6F72206F70656E6932
S11328C26E670A0D0057726F6E6720506173730052
S11328D257726F6E6720506173730A0D00547269E8
S11328E26573206C6566743A005472696573206C72
S11328F26566743A0A0D004775657374206D6F64DA
S11329026500456E74657220706173733A00576195
S1132912697420666F7220617070726F76650052FE
S113292265712066726F6D2067756573743A203124
S11329322E4F50454E20322E434C4F5345440A0DE0
S11329420072657120686173206265656E2072652C
S11329526A65637465640057726F6E672070617391
S11329627300313A526F6F6D3120323A526F6F6D8C
S11329723200313A526F6F6D3120323A526F6F6DBD
S1132982320A0D00333A526F6F6D3320343A4D6F71
S113299272650A0D00333A526F6F6D3320343A4D2B
S11329A26F726500333A526F6F6D3320343A526F4F
S11329B26F6D340057726F6E6720696E70757400A4
S11329C2313A526F6F6D3420202020323A54560A25
S11329D20D00333A416972436F6E6420343A4D4FAD
S11329E252450A0D00313A526F6F6D342020202077
S11329F2323A54562000333A416972436F6E642E60
S1132A02343A4D4F524500313A44696D4C454420A5
S1132A12323A5245540A0D00333A444F4F520A0D8A
S1132A2200313A44696D4C454420323A52455400CF
S1132A32333A444F4F522000313A5365742074653F
S1132A426D70657261747572650A0D00323A436F76
S1132A526E74726F6C2020333A5245540A0D003161
S1132A623A5365742074656D70657261747572652C
S1132A722000323A436F6E74726F6C2020333A52E4
S1132A82455400536574204272696768746E6573B5
S1132A92733A250A0D00536574204272696768749B
S1132AA26E6573733A25004272696768746E657362
S1132AB2732053657400313A6F70656E20323A6345
S1132AC26F6C73650A0D00313A6F70656E20323A8D
S1132AD2636F6C7365005365742074656D702E3A70
S1132AE25F5F0057726F6E6720696E7075740A0DAE
S1132AF20054656D706572617475726520536574F6
S1132B020054656D706572617475726520536574E5
S1132B120A0D0054454D50204E4F5700526F6F6DB1
S1132B223120533A00526F6F6D3220533A00526F84
S1132B326F6D3320533A00526F6F6D3420533A0055
S1132B42545620533A0041697220436F6E642E201A
S1132B52533A004F4E004F464600312D4F6E2032FD
S1132B622D4F666620302D52455400312D4F6E2074
S1112B72322D4F666620302D5245540A0D0058
S9030000FC
