S01400004D6F68616E647365656E5F392E7372656376
S11300000C9474000C94240D0C944B0D0C94720DF0
S11300100C9491000C9491000C943B0E0C94F310EE
S11300200C94140E0C94ED0D0C9491000C9491000E
S11300300C9491000C9491000C9491000C949100F8
S11300400C9491000C9491000C9491000C949100E8
S11300500C9491007004FD04AC05B605C005CA05F6
S11300606506710570067906DA054505EA07FB079A
S11300700C081D082E0857083F085708570857084A
S11300805708570857085708570857085708570874
S11300905708570857085708570857085708570864
S11300A05708570857085708570857085708570854
S11300B05708570857085708570857085708570844
S11300C05708570857085708570857085708570834
S11300D05708570857085708570857085708570824
S11300E0570857085708500811241FBECFE5D8E019
S11300F0DEBFCDBF13E0A0E6B0E0E8E1F5E202C068
S113010005900D92A833B107D9F723E0A8E3B3E033
S113011001C01D92A938B207E1F70E94B0000C9407
S11301208A120C94000080E00E94A50A90933C037C
S113013080933B0320916000309161008217930704
S113014040F061E08FE00E94070B81E080933D0363
S1130150089560E08FE00E94070B10923D0308951C
S1130160CF93DF93CDB7DEB72A970FB6F894DEBFEF
S11301700FBECDBF84E690E00E94DC0861E08BE016
S11301800E94BC0B60E08AE10E94BC0B82E690E016
S11301900E94A20A0E94600C0E942D090E94080A73
S11301A063E970E080E00E940F0D63E080E00E944C
S11301B0F30C80E00E94E10C0E94990D60E081E064
S11301C00E94910A8CEC90E00E94770A8CEC90E0FB
S11301D00E94DF0860E082E00E94910A8DED90E0C9
S11301E00E94770A8DED90E00E94DF082FEF33ED37
S11301F080E3215030408040E1F700C000000E94BD
S11302008D0A80E00E94A50A90933C0380933B03EF
S113021020916000309161002817390720F461E0D3
S11302208FE00E94070B80E590E00E941A0981305C
S113023039F484E690E00E941A09813009F4DCC0A4
S113024089EE90E00E94770A61E082E00E94910AC0
S113025083EF90E00E94770A9FEFE3EDF0E3915083
S1130260E040F040E1F700C000000E948D0A8EEFEC
S113027090E00E94770A61E082E00E94910A8DE09A
S113028091E00E94770A8FEF89838A838B838C8322
S11302909E012F5F3F4F790169011CE00E946409B0
S11302A03FEF99EFE0E031509040E040E1F700C0CB
S11302B00000882399F3F60181936F010E942F0AAD
S11302C0FFEF25EA3EE0F15020403040E1F700C066
S11302D00000612F82E00E94910A8AE20E942F0AA4
S11302E08FEF91EEE4E081509040E040E1F700C0F0
S11302F000001F5F103191F644E050E0BE016F5FD3
S11303007F4F84E190E00E94FD0861E080E590E089
S11303100E9421090E948D0A89E191E00E94770AD6
S1130320FFEF29E638E1F15020403040E1F700C00A
S113033000000E948D0A84E291E00E94770A61E045
S113034082E00E94910A83E391E00E94770A1CE014
S11303500E9464099FEFE9EFF0E09150E040F04023
S1130360E1F700C00000882399F3F70181937F012E
S11303700E942F0AFFEF25EA3EE0F1502040304072
S1130380E1F700C00000612F82E00E94910A8AE236
S11303900E942F0A8FEF91EEE4E081509040E040FC
S11303A0E1F700C000001F5F103191F644E050E017
S11303B0BE016F5F7F4F88E290E00E94FD0861E01C
S11303C084E690E00E9421090E948D0A89E191E06F
S11303D00E94770AFFEF29E638E1F15020403040CF
S11303E0E1F700C000000E948D0A60E08AE091E01D
S11303F00E9421091A8605C08AE091E00E941A0928
S11304008A8710E0B12CAA24AA94CB2C0F2EF3E3F4
S11304108F2EF02DDB2CB986B09239036B2D8EE133
S11304200E94070B6B2D8BE10E94070B8FEF93ED5E
S1130430E0E381509040E040E1F700C00000612C0F
S1130440FB2C20C2FA85F130C9F50E948D0A8FE396
S113045091E00E94770A8FE391E00E94DF0861E057
S113046082E00E94910A8DE491E00E94770A8DE473
S113047091E00E94DF0861E08CE10E94070B61E0DB
S113048083E00E94070B24E53DEC8DE293E02150CC
S1130490304080409040D9F700C000C000006C2D6F
S11304A083E00E94070B6C2D8CE10E94070B6C2DDE
S11304B08AE091E00E942109612CCA860E948D0A7B
S11304C08DE591E00E94770A61E082E00E94910A42
S11304D08BE691E00E94770AF1100EC00E94640935
S11304E0F82EEFEFF9EF20E0E150F0402040E1F783
S11304F000C00000882391F380ED8F0D823088F0D6
S11305000E948D0A8BE791E00E94770A3FEF83ED0A
S113051090E3315080409040E1F700C00000FC2C93
S1130520B1C1AD82AE82AF82A886A982AA82AB8213
S1130530AC82E0E3FE1609F4EDC0F1E3FF1609F422
S11305409CC1A0C10E948D0A88E891E00E94770AAC
S113055088E891E00E94DF0861E082E00E94910A4D
S113056083E991E00E94770A83E991E00E94DF0821
S11305702FEF33EC89E0215030408040E1F700C098
S113058000007E0195E0E90EF11C0CE031C00E94F0
S11305909607182FEFEFF9EF20E0E150F0402040EC
S11305A0E1F700C00000882391F3F70111937F0164
S11305B0812F0E942F0AFFEF25EA3EE0F1502040F0
S11305C03040E1F700C00000602F82E00E94910AF1
S11305D08AE20E942F0A8FEF91EEE4E0815090406E
S11305E0E040E1F700C000000F5F1985003119F009
S11305F0112369F2DACF44E050E0BE016F5F7F4F10
S113060084E190E00E94E50844E050E0BE016F5FA1
S11306107F4FCE0105960E947F07019709F043C0E2
S113062081E0809339030E948D0A8FE991E00E9452
S1130630770A8FE991E00E94DF0861E082E00E947E
S1130640910A88E891E00E94770A88E891E00E9484
S1130650DF08FFEF29E638E1F15020403040E1F7B0
S113066000C0000061E08EE10E94070B6D2D81E067
S11306700E94910A8AEA91E00E94770A8AEA91E04C
S11306800E94DF088AE590E00E94AC0A8FEF99E6A9
S1130690E8E181509040E040E1F700C000000E9492
S11306A08D0A612C35C06394D09239030E948D0A5F
S11306B087EB91E00E94770A87EB91E00E94DF08C4
S11306C061E082E00E94910A82EC91E00E94770A44
S11306D082EC91E00E94DF08882D86190E942F0A7F
S11306E0FFEF23ED30E3F15020403040E1F700C04C
S11306F000000E948D0A82E0861550F461E08AE0D1
S113070091E00E9421091C2DFC2C91E09A87BAC02B
S1130710FD2C1D2D80913903813009F013CFB2C017
S11307200E948D0A8EEC91E00E94770A61E082E0DB
S11307300E94910A89ED91E00E94770AEFEFF3ECB1
S113074029E0E150F0402040E1F700C000007E01C4
S113075035E0E30EF11C0CE00E9464099FEFE9EF21
S1130760F0E09150E040F040E1F700C00000882341
S113077099F3F70181937F010E942F0AFFEF25EA85
S11307803EE0F15020403040E1F700C00000602F0F
S113079082E00E94910A8AE20E942F0A8FEF91EE72
S11307A0E4E081509040E040E1F700C000000F5FBA
S11307B0003191F644E050E0BE016F5F7F4F88E264
S11307C090E00E94E50844E050E0BE016F5F7F4F77
S11307D0CE0105960E947F07019711F582E0809370
S11307E039030E948D0A8FE991E00E94770A61E043
S11307F082E00E94910A8EEC91E00E94770AFFEF5A
S113080029E638E1F15020403040E1F700C0000013
S113081061E08BE10E94070B0E948D0A612C2CC0C1
S11308206394C09239030E948D0A85EE91E00E9480
S1130830770A61E082E00E94910A82EC91E00E94D2
S1130840770A882D86190E942F0A8FEF93EDE0E333
S113085081509040E040E1F700C000000E948D0A02
S1130860F2E0F61548F461E08AE091E00E94210983
S1130870FC2C21E02A8706C0FC2C809139038230AD
S113088009F04ECF80913903882309F4DBCDFF248E
S1130890F3940F2EF4E63F2EF02D0F2EF9E06F2E79
S11308A0F02D0F2EFAE0EF2EF02D0F2EF7E09F2EF5
S11308B0F02D6894442443F80F2EF6E05F2EF02DBB
S11308C00F2EFBE07F2EF02DDBC28F2D90E0FC017C
S11308D03197EC30F105D8F7E65DFF4F0C944212E6
S11308E00E948D0A80EF91E00E94770A809139037B
S11308F08130D1F480EF91E00E94DF083FEF81EE78
S113090094E0315080409040E1F700C0000080E066
S113091092E00E94DF0861E082E00E94910A80E098
S113092092E00E94770A09C08230D1F661E00E9409
S1130930910A8FE092E00E94770A80913903823015
S113094061F582E090E00E948807EFEFF1EE24E089
S1130950E150F0402040E1F700C00000813309F489
S113096094C2823309F496C2833309F497C2843360
S113097009F499C2882309F4B3CF0E948D0A8FE148
S113098092E00E94770A3FEF89E698E13150804077
S11309909040E1F700C00000A3CF813009F0A0CF60
S11309A081E090E00E949607182FEFEFF9EF20E026
S11309B0E150F0402040E1F700C00000813309F429
S11309C074C2823309F476C2833309F477C2843360
S11309D009F479C2882309F483CF0E948D0A8FE138
S11309E092E00E94770A3FEF89E698E13150804017
S11309F09040E1F700C0000073CF0E948D0A8BE2A3
S1130A0092E00E94DF08EFEFF9EF20E0E150F040C0
S1130A102040E1F700C000008CE392E00E94DF0870
S1130A208BE292E00E94770A61E082E00E94910AE0
S1130A308DE492E00E94770A8091390390E00E944D
S1130A409607182F813309F442C2823309F441C254
S1130A50833309F440C2843309F43FC2882369F222
S1130A600E948D0A8FE192E00E94770A3FEF89E6A7
S1130A7098E1315080409040E1F700C000008FECD5
S1130A80810F843008F0B9CFFBC18EE592E00E945B
S1130A90DF080E948D0A8EE592E00E94770A809119
S1130AA0390390E00E949607182F813309F41AC283
S1130AB0823309F419C2882341F30E948D0A8FE11D
S1130AC092E00E94770AEFEFF9E628E1E150F04066
S1130AD02040E1F700C000008FEC810F8230A8F6BF
S1130AE0CFC10E948D0A8DE692E00E94DF088FE755
S1130AF092E00E94DF0880E992E00E94770A61E0B8
S1130B0082E00E94910A8FE792E00E94770A809126
S1130B10390390E00E949607182F813309F4E7C146
S1130B20823309F4E6C1833309F4E5C18823C9F2A9
S1130B300E948D0A8FE192E00E94770A3FEF89E6D6
S1130B4098E1315080409040E1F700C000008FEC04
S1130B50810F833030F694C16091390370E083E0F3
S1130B6090E00E94A407FF24F3948AC160913903A2
S1130B7070E084E090E00E94A407FF24F39480C115
S1130B806091390370E085E090E00E94A407FF249F
S1130B90F39476C16091390370E086E090E00E949E
S1130BA0A40780913903823009F468C16894FF2452
S1130BB0F1F866C10E94D2080E948D0A83EA92E08D
S1130BC00E94DF0883EA92E00E94770A6B2D82E09C
S1130BD00E94910A8091390390E00E949607182F91
S1130BE08A3380F00E948D0A8FE192E00E94770A96
S1130BF0EFEFF9E628E1E150F0402040E1F700C0D2
S1130C000000D8CF0E942F0A8091390390E00E94FF
S1130C109607F82E80ED8F0D8A3080F00E948D0AA1
S1130C208FE192E00E94770A3FEF89E698E1315024
S1130C3080409040E1F700C00000BCCF8F2D0E949F
S1130C402F0A8091390390E00E949607282E80EDA8
S1130C50820D8A3080F00E948D0A8FE192E00E941A
S1130C60770AEFEFF9E628E1E150F0402040E1F7A0
S1130C7000C000009FCF822D0E942F0AFF0C8F2DF1
S1130C80880F880FF80E139DF00C11242F0C0E946E
S1130C90D208822D90E00E94DA080E948D0A84EB2B
S1130CA092E00E94770A3FEF89E698E13150804054
S1130CB09040E1F700C00000222009F47BCF0F2E02
S1130CC0FCE0FF2EF02D1B2DDBC06091390370E09A
S1130CD087E090E00E94A4076894FF24F1F8D0C054
S1130CE06091390370E089E090E00E94A407F42C3D
S1130CF0C7C0B0923A030E948D0A83EC92E00E942E
S1130D00770A8FED0E942F0A83E40E942F0A672D31
S1130D1081E00E94910AEFEFF3EC29E0E150F0400A
S1130D202040E1F700C000006E2D81E00E94910A8E
S1130D300E949607182F0F2EF0EDFF2EF02DF80EBF
S1130D4039E03F15A0F40E948D0A8FE192E00E94E1
S1130D50770A8FE192E00E94DF088FEF99E6E8E1DD
S1130D6081509040E040E1F700C0000080C00E9444
S1130D702F0A0E949607182F0F2EF0ED2F2EF02D1C
S1130D80280EF9E0F215A0F40E948D0A8FE192E09A
S1130D900E94770A8FE192E00E94DF082FEF39E684
S1130DA088E1215030408040E1F700C000005FC07E
S1130DB00E942F0AFF0C8F2D880F880FF80E2F0C1E
S1130DC020923A039FEFE3ECF9E09150E040F040C9
S1130DD0E1F700C000000E948D0A80ED92E00E94BD
S1130DE0770A80ED92E00E94DF082FEF39E688E170
S1130DF0215030408040E1F700C0000080913A0368
S1130E0090E020913B0330913C038217930728F430
S1130E1061E08FE00E94070B04C06B2D8FE00E94FD
S1130E20070B8B2D0E94A50A90933C0380933B03F0
S1130E304E2D6EE773E00E9455126B2D82E00E94E6
S1130E40910A80EE92E00E94770A662D82E00E9469
S1130E50910A8EE793E00E94770A9FEFE9E6F8E1B2
S1130E609150E040F040E1F700C000001B2D80915C
S1130E703A03882309F43FCFF42C02C0FF24F394EF
S1130E802A85213009F021CDC7CA0F2EF3E0FF2EA9
S1130E90F02DF6CF6894FF24F2F8F2CF0F2EF5E090
S1130EA0FF2EF02DEDCFF52CEBCF0F2EF3E0FF2E20
S1130EB0F02DE6CF6894FF24F2F8E2CF0F2EF5E090
S1130EC0FF2EF02DDDCF6894FF24F1F8D9CFF52C57
S1130ED0D7CFF92CD5CFF42CD3CF0F2EFCE0FF2E97
S1130EE0F02DCECFF72CCCCFFF24F394C9CFFE2C1A
S1130EF0C7CFF62CC5CF6894FF24F1F8C1CF50E0DA
S1130F000E94481221E0892B09F020E0822F0895E5
S1130F100E9464092FEF39EF90E021503040904057
S1130F20E1F700C00000882399F308950E94E208C5
S1130F302FEF39EF90E0215030409040E1F700C0AE
S1130F400000882399F30895CF92DF92EF92FF92E5
S1130F500F931F93CF93DF93C82F062FD0E010E099
S1130F60C82ED12C0E948D0AC530B1F028F4C330AC
S1130F7049F0C43061F024C0C730C1F090F0C930EA
S1130F80D1F01EC089EE92E00E94770A23C082EF5E
S1130F9092E00E94770A2FC08BEF92E00E94770ABA
S1130FA03BC084E093E00E94770A47C08DE093E061
S1130FB00E94770A53C083E193E00E94770A5FC0DE
S1130FC0F6013397EE33F10508F071C0EA5CFF4F88
S1130FD00C94421281E00E94890B813031F480E24A
S1130FE093E00E94770A11E062C083E293E00E94DA
S1130FF0770A11E05CC08CE00E94890B813031F4E7
S113100080E293E00E94770A1CE051C083E293E0FF
S11310100E94770A1CE04BC08DE00E94890B81304E
S113102031F480E293E00E94770A1DE040C083E23D
S113103093E00E94770A1DE03AC08EE00E94890B7B
S1131040813031F480E293E00E94770A1EE02FC0E1
S113105083E293E00E94770A1EE029C08FE10E9498
S1131060890B813031F480E293E00E94770A1FE11A
S11310701EC083E293E00E94770A1FE118C08FE04C
S11310800E94890B813031F480E293E00E94770A58
S11310901FE00DC083E293E00E94770A1FE007C0BF
S11310A080913A0390E0909361008093600061E046
S11310B082E00E94910A87E293E00E94770A80917D
S11310C03903823081F5802F0E9488072FEF31EE9B
S11310D094E0215030409040E1F700C0000081339B
S11310E029F461E0812F0E94070B53C0823329F455
S11310F060E0812F0E94070B4CC0803309F449C083
S1131100882309F441C00E948D0A8FE192E00E9475
S1131110770A2FEF39E688E1215030408040E1F72B
S113112000C0000031C0813079F587E293E00E946D
S1131130DF08809139030E94960780933803813336
S113114039F461E0812F0E94070BD09138031CC051
S1131150823339F460E0812F0E94070BD091380369
S113116013C08033B1F0882379F00E948D0A8FE197
S113117092E00E94770A9FEF29E638E191502040DF
S11311803040E1F700C0000080ED8D0F833008F09F
S1131190E9CEDF91CF911F910F91FF90EF90DF90F7
S11311A0CF90089561E08BE00E94BC0B83B7896601
S11311B083BF08958CBF08950E94620E08950E9413
S11311C0DC0E08950E94F20E0895E199FECF4115B8
S11311D0510591F0460F571FFB019C01261B370B4D
S11311E0B9019B012E0F3F1F3FBB2EBBE09A9DB35D
S11311F09193E417F507A9F7089541155105C9F02E
S1131200460F571FFB019C01261B370BB901E199BF
S1131210FECF9B012E0F3F1F3FBB2EBBE09A2DB389
S11312209191291719F09DBBE29AE19AE417F50709
S113123071F70895E199FECF9FBB8EBBE09A8DB301
S11312400895E199FECF9FBB8EBBE09A8DB38617BC
S113125019F06DBBE29AE19A0895EF92FF920F9311
S11312601F93CF93DF93CCE7D0E00F2EF0E8EF2E5F
S1131270F0E0FF2EF02D8E0160E089910E94BC0BFE
S113128061E0F80180810E94070BCE15DF0599F714
S1131290C0E8D0E00F2EF4E8EF2EF0E0FF2EF02DA2
S11312A08E0161E089910E94BC0B61E0F8018081AC
S11312B00E94070BCE15DF0599F7DF91CF911F919F
S11312C00F91FF90EF9008956F927F928F929F926B
S11312D0AF92BF92CF92DF92EF92FF920F931F9340
S11312E0CF93DF9300E810E0C12CD12C46015801C4
S11312F060E0F80180810E94070BCCE7D0E0612C0C
S1131300712C730189910E94890B811114C0E3012E
S1131310C458DF4F88810E94890B8823D9F3C40104
S1131320880F991F880F991F84599F4FFC01EE0D58
S1131330FF1D808116C0FFEF6F1A7F0A84E06816D4
S11313407104F9F60F5F1F4F61E0F50180810E947F
S1131350070BFFEFCF1ADF0A84E0C816D10431F679
S113136080E0DF91CF911F910F91FF90EF90DF907C
S1131370CF90BF90AF909F908F907F906F90089583
S1131380CF93C82F60E089E00E94070B80E00E94A1
S11313903E0C8F709C2F907F682F692B80E00E94F9
S11313A0500C60E088E00E94070B8FE891E0019701
S11313B0F1F700C0000061E088E00E94070B8FE1B4
S11313C09EE40197F1F700C0000080E00E943E0C0B
S11313D08F7090E1C99F90011124682F622B80E0E7
S11313E00E94500C60E088E00E94070B8FE891E0B7
S11313F00197F1F700C0000061E088E00E94070B4C
S11314008FE39FE10197F1F700C00000CF910895A9
S113141060E08AE00E94070B61E088E00E94070B0D
S11314202FEF89EF90E0215080409040E1F700C019
S1131430000083E30E94C00982E30E94C00988E29D
S11314400E94C00986E00E94C0098FE00E94C00982
S11314508FE39FE10197F1F700C000000895CF9357
S1131460C82F61E089E00E94070B80E00E943E0CD7
S11314708F709C2F907F682F692B80E00E94500C06
S113148060E088E00E94070B8FE891E00197F1F794
S113149000C0000061E088E00E94070B8FE19EE439
S11314A00197F1F700C0000080E00E943E0C8F70AD
S11314B090E1C99F90011124682F622B80E00E9463
S11314C0500C60E088E00E94070B8FE891E00197E0
S11314D0F1F700C0000061E088E00E94070B8FE391
S11314E09FE10197F1F700C00000CF9108950F9399
S11314F01F93CF93FC018081882359F08F01C0E0B2
S11315000E942F0ACF5FF801EC0FF11D8081811139
S1131510F7CFCF911F910F91089581E00E94C009E8
S11315200895813019F0823039F00895862F8F7034
S113153080680E94C0090895862F8F70806C0E9475
S1131540C00908950E94EC0A08950E94F90A96952C
S113155087959695879508950F931F93CF93DF935F
S1131560CDB7DEB728970FB6F894DEBF0FBECDBF58
S11315708C0161E08DE10E94BC0B67E873E182E0BD
S11315800E94DE0DB80180E090E00E9425112CE15C
S113159037EC41EB5FE30E94B3110E94F6106750F1
S11315A07F4F80E00E94DE0D88E0E4ECF0E0DE0195
S11315B0119601900D928A95E1F7CE0101960E9451
S11315C09D0D28960FB6F894DEBF0FBECDBFDF91F8
S11315D0CF911F910F910895FC0190819295990FDD
S11315E0990F907C97B996B18181892B86B9379AE6
S11315F0089597B1907E8F71892B87B9369A349B61
S1131600FECF349A84B125B190E0922B0895982F9F
S11316109770869586958695813021F130F08230D9
S1131620F1F1833009F458C00895613069F44BB383
S113163021E030E0B90102C0660F771F9A95E2F706
S1131640CB01842B8BBB08954BB321E030E0B9016F
S113165002C0660F771F9A95E2F7CB018095842329
S11316608BBB0895613069F448B321E030E0B901DF
S113167002C0660F771F9A95E2F7CB01842B88BBD3
S1131680089548B321E030E0B90102C0660F771F26
S11316909A95E2F7CB018095842388BB0895613045
S11316A069F445B321E030E0B90102C0660F771F49
S11316B09A95E2F7CB01842B85BB089545B321E0CD
S11316C030E0B90102C0660F771F9A95E2F7CB01AB
S11316D08095842385BB0895613069F442B321E089
S11316E030E0B90102C0660F771F9A95E2F7CB018B
S11316F0842B82BB089542B321E030E0B90102C0DB
S1131700660F771F9A95E2F7CB018095842382BBFD
S11317100895282F2770869586958695813079F0CF
S113172028F08230A9F08330E1F024C089B390E03E
S113173002C0959587952A95E2F78170089586B33E
S113174090E002C0959587952A95E2F781700895F7
S113175083B390E002C0959587952A95E2F781704E
S1131760089580B390E002C0959587952A95E2F795
S11317708170089580E00895982F977086958695D6
S11317808695813021F130F08230F1F1833009F413
S113179058C00895613069F44AB321E030E0B901DA
S11317A002C0660F771F9A95E2F7CB01842B8ABBA0
S11317B008954AB321E030E0B90102C0660F771FF3
S11317C09A95E2F7CB01809584238ABB0895613012
S11317D069F447B321E030E0B90102C0660F771F16
S11317E09A95E2F7CB01842B87BB089547B321E098
S11317F030E0B90102C0660F771F9A95E2F7CB017A
S11318008095842387BB0895613069F444B321E053
S113181030E0B90102C0660F771F9A95E2F7CB0159
S1131820842B84BB089544B321E030E0B90102C0A5
S1131830660F771F9A95E2F7CB018095842384BBCA
S11318400895613069F441B321E030E0B90102C088
S1131850660F771F9A95E2F7CB01842B81BB08951D
S113186041B321E030E0B90102C0660F771F9A95B9
S1131870E2F7CB018095842381BB0895813041F048
S113188028F0823039F0833039F008C08BB30895E2
S113189088B3089585B3089582B3089580E00895C8
S11318A0813041F028F0823039F0833039F00895E6
S11318B06BBB089568BB089565BB089562BB08952A
S11318C0E4E8F0E080E041E050E0282F2770982F12
S11318D0969596959695913009F130F09230C1F134
S11318E0933009F44FC067C09081913059F49AB392
S11318F0BA0102C0660F771F2A95E2F79B01292BD4
S11319002ABB59C03AB3BA0102C0660F771F2A95A1
S1131910E2F7962F909593239ABB4DC09081913016
S113192059F497B3BA0102C0660F771F2A95E2F7FC
S11319309B01292B27BB3FC037B3BA0102C0660FF6
S1131940771F2A95E2F7962F9095932397BB33C080
S11319509081913059F494B3BA0102C0660F771F95
S11319602A95E2F79B01292B24BB25C034B3BA0185
S113197002C0660F771F2A95E2F7962F909593235E
S113198094BB19C09081913059F491B3BA0102C04B
S1131990660F771F2A95E2F79B01292B21BB0BC009
S11319A031B3BA0102C0660F771F2A95E2F7962F6A
S11319B09095932391BB8F5F3296803209F085CF47
S11319C00895813041F018F0823049F008958BB7C2
S11319D080648BBF08958BB780688BBF08958BB7E5
S11319E080628BBF0895813041F018F0823059F045
S11319F0089585B7682B65BF089585B7660F660F90
S1131A00682B65BF0895623021F484B78F7B84BF4F
S1131A100895633019F484B7806484BF08958130D5
S1131A2049F018F0823059F008957093430360939D
S1131A3042030895709341036093400308957093A3
S1131A403F0360933E0308951F920F920FB60F92C7
S1131A5011242F933F934F935F936F937F938F93AF
S1131A609F93AF93BF93EF93FF93E0914203F09161
S1131A7043030995FF91EF91BF91AF919F918F918E
S1131A807F916F915F914F913F912F910F900FBE76
S1131A900F901F9018951F920F920FB60F9211245A
S1131AA02F933F934F935F936F937F938F939F9362
S1131AB0AF93BF93EF93FF93E0914003F091410301
S1131AC00995FF91EF91BF91AF919F918F917F9174
S1131AD06F915F914F913F912F910F900FBE0F9097
S1131AE01F9018951F920F920FB60F9211242F93E7
S1131AF03F934F935F936F937F938F939F93AF9392
S1131B00BF93EF93FF93E0913E03F0913F03099558
S1131B10FF91EF91BF91AF919F918F917F916F91C1
S1131B205F914F913F912F910F900FBE0F901F9097
S1131B3018958FB780688FBF0895FC019FB5808189
S1131B408370892B8FBD9EB5808186958695880F7D
S1131B50880F880F892B8EBD9EB58181892B8EBD00
S1131B602FB5928130E4939FC0011124822B8FBD45
S1131B702FB5938130E1939FC0011124822B8FBD37
S1131B8099B78481880F880F892B89BF99B786817B
S1131B90880F880F880F892B89BF29B7958130E179
S1131BA0939FC0011124822B89BF29B7978130E20A
S1131BB0939FC0011124822B89BF0895813039F08D
S1131BC018F0823039F008957BBD6ABD089579BD5F
S1131BD068BD089577BD66BD08951F920F920FB634
S1131BE00F9211242F933F934F935F936F937F939F
S1131BF08F939F93AF93BF93EF93FF93E091480329
S1131C00F09149030995FF91EF91BF91AF919F9195
S1131C108F917F916F915F914F913F912F910F9091
S1131C200FBE0F901F9018951F920F920FB60F9230
S1131C3011242F933F934F935F936F937F938F93CD
S1131C409F93AF93BF93EF93FF93E0914603F0917B
S1131C5047030995FF91EF91BF91AF919F918F91A8
S1131C607F916F915F914F913F912F910F900FBE94
S1131C700F901F9018951F920F920FB60F92112478
S1131C802F933F934F935F936F937F938F939F9380
S1131C90AF93BF93EF93FF93E0914403F091450317
S1131CA00995FF91EF91BF91AF919F918F917F9192
S1131CB06F915F914F913F912F910F900FBE0F90B5
S1131CC01F901895CF93DF93EC018A818130E9F45A
S1131CD0599A28813981C901A0E0B0E0880F991F81
S1131CE0AA1FBB1F880F991FAA1FBB1F9C01AD0110
S1131CF0220F331F441F551F60E074E284EF90E00D
S1131D000E9420122150310920C05998288139811C
S1131D10C901A0E0B0E0880F991FAA1FBB1F880F5C
S1131D20991FAA1FBB1F9C01AD01220F331F441F23
S1131D30551F220F331F441F551F60E074E284EFC8
S1131D4090E00E9420122150310929B930BD9B81B5
S1131D50973029F4529A80B5866880BD05C080B555
S1131D60990F8068892B80BD20B59D8130E1939FB8
S1131D70C0011124922F9068892B80BD80B59C816D
S1131D80990F990F990F8068892B80BD9AB18E8124
S1131D90880F880F880F892B8AB92AB19F8130E177
S1131DA0939FC0011124822B8AB9DF91CF910895AA
S1131DB05D9BFECF8CB908950F931F93CF93FC01C5
S1131DC08081882359F08F01C0E00E94D80ECF5F34
S1131DD0F801EC0FF11D80818111F7CFCF911F9194
S1131DE00F9108955F9BFECF8CB10895E091560347
S1131DF0F09157038081811107C08FEF9FEF90937B
S1131E004C0380934B030895E0915603F0915703DC
S1131E100580F681E02D8081918190934C0380931D
S1131E204B030895EF92FF920F931F93CF93DF9389
S1131E3080914A03811104C1C0915203D09153038C
S1131E407E018FEFE81AF80AF0925303E0925203EE
S1131E50E114F104B9F48091560390915703209151
S1131E6054033091550330935703209356039093B2
S1131E7055038093540380914D038F5F80934D03EA
S1131E800E94F60E80914B0390914C03E816F906DC
S1131E9010F480E0B9C080E061E0E0915603F09175
S1131EA057039081911107C02FEF3FEF30934C03FC
S1131EB020934B03A9C0E0915603F091570305808A
S1131EC0F681E02D0680F781E02D22813381E21630
S1131ED0F30628F430934C0320934B0395C0A2855A
S1131EE0B3852481358146815781E9015D834C8323
S1131EF02681378144815581E9015B834A83AF019F
S1131F004E5F5F4F11962D913C9112972417350720
S1131F1031F42681378112963C932E9311971386C0
S1131F2012869C9191509C93A489B589109719F1BC
S1131F302685378500891189E9011D830C83208951
S1131F40318906851785E9011B830A8311960D9152
S1131F501C9112979F01245F3F4F0217130731F41E
S1131F602089318912963C932E931197158A148AED
S1131F709C9191509C93268990915103921710F44F
S1131F802093510330E0D901AA0FBB1FAA0FBB1F36
S1131F90AA0FBB1F2A0F3B1FD901A85ABC4F119689
S1131FA00D90BC91A02DB583A48314962D913C91E2
S1131FB015973783268314962D913C911597E90143
S1131FC05B834A8315965C934E931497A689B0E07D
S1131FD09D01220F331F220F331F220F331FA20F25
S1131FE0B31FA85ABC4FB387A2879C919F5F9C9351
S1131FF0A0917C03B0917D03268956969C919217FB
S113200008F04BCF862F49CFE0917C03F0917D03FC
S1132010268930E0F901EE0FFF1FEE0FFF1FEE0FD0
S1132020FF1F2E0F3F1FF901E85AFC4F9081923099
S113203008F081E090914E03992361F081E00AC099
S113204080914F0390915003019690935003809395
S11320504F0380E0DF91CF911F910F91FF90EF909C
S1132060089580914A03882321F081E080934E03F0
S1132070089510924E0320915103822F90E0FC01A9
S1132080EE0FFF1FEE0FFF1FEE0FFF1FE80FF91FEC
S1132090E85AFC4F3081311111C02150822F90E059
S11320A0FC01EE0FFF1FEE0FFF1FEE0FFF1FE80FE7
S11320B0F91FE85AFC4F3081332379F3AC01440F04
S11320C0551F440F551F440F551F480F591FDA0160
S11320D0A85ABC4F1196ED91FC9112970280F3819E
S11320E0E02D1296FC93EE931197455A5C4FE4173A
S11320F0F50729F442815381FD0152834183FC0198
S1132100EE0FFF1FEE0FFF1FEE0FFF1F8E0F9F1F1F
S1132110FC01E85AFC4F0180F281E02D8681978111
S113212090937D0380937C032093510308950F9231
S11321300FB6F8940F921F9211242F923F924F9250
S11321405F926F927F928F929F92AF92BF92CF9243
S1132150DF92EF92FF920F931F932F933F934F932E
S11321605F936F937F938F939F93AF93BF93CF931B
S1132170DF93EF93FF93A0917C03B0917D030DB6A1
S11321800D920EB60D920E94120F81110E94311011
S1132190A0917C03B0917D03CD91CDBFDD91DEBFD5
S11321A0FF91EF91DF91CF91BF91AF919F918F916B
S11321B07F916F915F914F913F912F911F910F915B
S11321C0FF90EF90DF90CF90BF90AF909F908F9053
S11321D07F906F905F904F903F902F901F900F9043
S11321E00FBE0F9008950E94971018950E949211A7
S11321F088F09F5798F0B92F9927B751B0F0E1F0C4
S1132200660F771F881F991F1AF0BA95C9F714C073
S1132210B13091F00E94AC11B1E008950C94AC116E
S1132220672F782F8827B85F39F0B93FCCF38695AC
S113223077956795B395D9F73EF490958095709509
S113224061957F4F8F4F9F4F0895E89409C097FB86
S11322503EF490958095709561957F4F8F4F9F4F79
S11322609923A9F0F92F96E9BB279395F6958795BD
S113227077956795B795F111F8CFFAF4BB0F11F480
S113228060FF1BC06F5F7F4F8F4F9F4F16C0882327
S113229011F096E911C0772321F09EE8872F762F5D
S11322A005C0662371F096E8862F70E060E02AF09E
S11322B09A95660F771F881FDAF7880F969587958A
S11322C097F9089597F99F6780E870E060E00895B2
S11322D09FEF80EC089500240A941616170618063A
S11322E00906089500240A94121613061406050616
S11322F00895092E0394000C11F4882352F0BB0FA7
S113230040F4BF2B11F460FF04C06F5F7F4F8F4F09
S11323109F4F089557FD9058440F551F59F05F3F44
S113232071F04795880F97FB991F61F09F3F79F0F3
S113233087950895121613061406551FF2CF469575
S1132340F1DF08C0161617061806991FF1CF8695F7
S11323507105610508940895E894BB2766277727DB
S1132360CB0197F908950E94C6110C9479110E942B
S11323706B1138F00E94721120F0952311F00C9427
S113238062110C94681111240C94AD110E948A11ED
S113239070F3959FC1F3950F50E0551F629FF001B4
S11323A0729FBB27F00DB11D639FAA27F00DB11DCD
S11323B0AA1F649F6627B00DA11D661F829F222756
S11323C0B00DA11D621F739FB00DA11D621F839FDD
S11323D0A00D611D221F749F3327A00D611D231FB3
S11323E0849F600D211D822F762F6A2F11249F5701
S11323F050409AF0F1F088234AF0EE0FFF1FBB1F04
S1132400661F771F881F91505040A9F79E3F5105C2
S113241080F00C9462110C94AD115F3FE4F3983E8C
S1132420D4F3869577956795B795F795E7959F5F6C
S1132430C1F7FE2B880F911D9695879597F90895FE
S1132440A1E21A2EAA1BBB1BFD010DC0AA1FBB1FB4
S1132450EE1FFF1FA217B307E407F50720F0A21B26
S1132460B30BE40BF50B661F771F881F991F1A9493
S113247069F760957095809590959B01AC01BD01BD
S1132480CF010895EE0FFF1F0590F491E02D0994FC
S1132490FB01DC0104C08D910190801921F44150AD
S11324A05040C8F7881B990B0895BB274A3031F474
S11324B0992322F4BDE2909581959F4F0C9461126B
S11324C0BB27FB015527AA27880F991FAA1FA4170A
S11324D010F0A41B83955051B9F7A05DAA3308F0FE
S11324E0A95DA193009779F7B111B1931192CB0132
S11324F00C947A12DC01FC01672F71917723E1F7C8
S1132500329704C07C916D9370836291AE17BF07BC
S10B2510C8F30895F894FFCF0D
S11325181800030780250003000001013738392F0C
S11325283435362A3132332D43303D2B14151617E2
S1132538101112130101010101010101010101013D
S1132548010101010101010101010101010101016F
S1132558010101010101010101010101010101015F
S1132568010101010101010101010101010101014F
S1132578010101010E0502000000000057656C63AB
S11325886F6D6520746F20736D61727400686F6D70
S1132598652073797374656D004C6F67696E206686
S11325A86F720066697273742074696D650053658F
S11325B8742041646D696E20706173730041646DA9
S11325C8696E20706173733A0050617373205361AC
S11325D8766564005365742047756573742050618B
S11325E8737300477565737420506173733A004CB4
S11325F86F67696E20626C6F636B656400776169ED
S113260874203230207365636F6E64730053656C95
S1132618656374206D6F6465203A00303A41646DD7
S1132628696E20313A47756573740057726F6E6727
S113263820696E7075742E0041646D696E206D6F2B
S1132648646500456E74657220506173733A005274
S113265869676874207061737300446F6F72206FC8
S113266870656E696E670057726F6E67205061738C
S113267873005472696573206C6566743A00477513
S1132688657374206D6F646500456E74657220709F
S11326986173733A0057726F6E67207061737300C9
S11326A8313A526F6F6D3120323A526F6F6D32008A
S11326B8333A526F6F6D3320343A4D6F726500337D
S11326C83A526F6F6D3320343A526F6F6D3400573E
S11326D8726F6E6720696E70757400313A526F6F4D
S11326E86D3420202020323A54562000333A416970
S11326F872436F6E6420343A4D4F524500333A4169
S11327086972436F6E642E343A4D4F524500313A24
S113271844696D4C454420323A52455400313A5389
S113272865742074656D70657261747572650032C4
S11327383A436F6E74726F6C2020333A52455400DA
S1132748313A5365742074656D706572617475727D
S1132758652000536574204272696768746E6573F6
S1132768733A25004272696768746E6573732053FF
S11327786574005365742074656D702E3A5F5F004C
S113278854656D7065726174757265205365740063
S113279854454D50204E4F5700526F6F6D312053A2
S11327A83A00526F6F6D3220533A00526F6F6D3397
S11327B820533A00526F6F6D3420533A0054562018
S11327C8533A0041697220436F6E642E20533A00D5
S11327D84F4E004F464600312D4F6E20322D4F6626
S10B27E86620302D5245540017
S9030000FC
