S0100000485F4272696467652E7372656320
S11300000C942A000C9434000C9434000C943400A6
S11300100C9434000C9434000C9434000C9434008C
S11300200C9434000C9434000C9434000C9434007C
S11300300C9434000C9434000C9434000C9434006C
S11300400C9434000C9434000C9434000C9434005C
S11300500C94340011241FBECFE5D8E0DEBFCDBF21
S11300600E9436000C947F010C9400000E942F0122
S113007061E084E00E944E0181E00E945C012FE770
S113008084E89EE1215080409040E1F700C00000E8
S113009082E00E945C012FE784E89EE121508040C9
S11300A09040E1F700C00000E3CF813001F130F06F
S11300B08230B1F1833009F44CC00895413059F4D1
S11300C02AB381E090E002C0880F991F6A95E2F795
S11300D0822B8ABB08952AB381E090E002C0880F86
S11300E0991F6A95E2F7809582238ABB089541306F
S11300F059F427B381E090E002C0880F991F6A95F4
S1130100E2F7822B87BB089527B381E090E002C019
S1130110880F991F6A95E2F78095822387BB08951B
S1130120413059F424B381E090E002C0880F991F54
S11301306A95E2F7822B84BB089524B381E090E0B2
S113014002C0880F991F6A95E2F78095822384BBC9
S11301500895413059F421B381E090E002C0880F42
S1130160991F6A95E2F7822B81BB089521B381E040
S113017090E002C0880F991F6A95E2F78095822368
S113018081BB0895813001F130F08230B1F18330C8
S113019009F44CC00895413059F42BB381E090E048
S11301A002C0880F991F6A95E2F7822B8BBB0895D2
S11301B02BB381E090E002C0880F991F6A95E2F7A3
S11301C0809582238BBB0895413059F428B381E094
S11301D090E002C0880F991F6A95E2F7822B88BBD2
S11301E0089528B381E090E002C0880F991F6A95B2
S11301F0E2F78095822388BB0895413059F425B3F2
S113020081E090E002C0880F991F6A95E2F7822B83
S113021085BB089525B381E090E002C0880F991F43
S11302206A95E2F78095822385BB0895413059F49D
S113023022B381E090E002C0880F991F6A95E2F72B
S1130240822B82BB089522B381E090E002C0880F24
S1130250991F6A95E2F78095822382BB089541E055
S113026063E082E00E94550041E064E082E00E9485
S1130270550041E065E082E00E94550041E066E0FF
S113028082E00E94550041E064E083E00E94550052
S113029041E065E083E00E9455000895613031F447
S11302A041E0682F83E00E94C200089540E0682F77
S11302B083E00E94C2000895CF93C82F41E064E018
S11302C083E00E94C200C13019F0C23061F015C051
S11302D041E063E082E00E94C20040E064E082E02A
S11302E00E94C2000AC041E064E082E00E94C200B1
S11302F040E063E082E00E94C200CF910895F89448
S1050300FFCF29
S9030000FC
