S01100004C454420534952454E2E737265639D
S11300000C942A000C9434000C9434000C943400A6
S11300100C9434000C9434000C9434000C9434008C
S11300200C9434000C9434000C9434000C9434007C
S11300300C9434000C9434000C9434000C9434006C
S11300400C9434000C9434000C9434000C9434005C
S11300500C94340011241FBECFE5D8E0DEBFCDBF21
S11300600E9436000C94E9010C94000060E081E0E9
S11300700E94B70167E081E00E94B70163E081E07C
S11300800E94850164E081E00E9485012FEF89E6EA
S113009098E1215080409040E1F700C0000062E008
S11300A081E00E94850165E081E00E94850163E0B2
S11300B081E00E94B70164E081E00E94B7012FEF64
S11300C089E698E1215080409040E1F700C00000AB
S11300D062E081E00E94B70165E081E00E94B7011F
S11300E063E081E00E94850164E081E00E94850173
S11300F061E081E00E94850166E081E00E94850163
S11301002FEF89E698E1215080409040E1F700C04C
S1130110000061E081E00E94B70166E081E00E9496
S1130120B70163E081E00E94B70164E081E00E94CE
S1130130B70160E081E00E94850167E081E00E94F0
S113014085012FEF89E698E1215080409040E1F746
S113015000C000008BCF813001F130F08230B1F16A
S1130160833009F44CC00895413059F42AB381E036
S113017090E002C0880F991F6A95E2F7822B8ABB30
S113018008952AB381E090E002C0880F991F6A9510
S1130190E2F7809582238ABB0895413059F427B34E
S11301A081E090E002C0880F991F6A95E2F7822BE4
S11301B087BB089527B381E090E002C0880F991FA0
S11301C06A95E2F78095822387BB0895413059F4FC
S11301D024B381E090E002C0880F991F6A95E2F78A
S11301E0822B84BB089524B381E090E002C0880F81
S11301F0991F6A95E2F78095822384BB0895413064
S113020059F421B381E090E002C0880F991F6A95E8
S1130210E2F7822B81BB089521B381E090E002C014
S1130220880F991F6A95E2F78095822381BB089510
S1130230813001F130F08230B1F1833009F44CC0E7
S11302400895413059F42BB381E090E002C0880F47
S1130250991F6A95E2F7822B8BBB08952BB381E03B
S113026090E002C0880F991F6A95E2F78095822377
S11302708BBB0895413059F428B381E090E002C06B
S1130280880F991F6A95E2F7822B88BB089528B3DB
S113029081E090E002C0880F991F6A95E2F780958B
S11302A0822388BB0895413059F425B381E090E05E
S11302B002C0880F991F6A95E2F7822B85BB0895C7
S11302C025B381E090E002C0880F991F6A95E2F798
S11302D08095822385BB0895413059F422B381E08F
S11302E090E002C0880F991F6A95E2F7822B82BBC7
S11302F0089522B381E090E002C0880F991F6A95A7
S1130300E2F78095822382BB0895CF93DF93C82FB1
S1130310D62F813079F028F08230A9F08330E1F0D3
S113032023C041E00E94AB0041E06D2F8C2F0E945E
S113033018011AC041E00E94AB0041E06D2F8C2FE0
S11303400E94180111C041E00E94AB0041E06D2FF2
S11303508C2F0E94180108C041E00E94AB0041E0CC
S11303606D2F8C2F0E941801DF91CF910895CF93A8
S1130370DF93C82FD62F813079F028F08230A9F08E
S11303808330E1F023C041E00E94AB0040E06D2FD8
S11303908C2F0E9418011AC041E00E94AB0040E07B
S11303A06D2F8C2F0E94180111C041E00E94AB00F8
S11303B040E06D2F8C2F0E94180108C041E00E947C
S11303C0AB0040E06D2F8C2F0E941801DF91CF917C
S10903D00895F894FFCF2C
S9030000FC
