S01400004D6F68616E647365656E5F392E7372656376
S11300000C942A000C94D0000C94F7000C941E015C
S11300100C9447000C9447000C9493010C94470CE7
S11300200C946C010C9445010C9447000C9447000B
S11300300C9447000C9447000C9447000C94470020
S11300400C9447000C9447000C9447000C94470010
S11300500C94470011241FBECFE5D8E0DEBFCDBF0E
S113006010E0A0E6B0E0E0E8F9E102C005900D92EE
S1130070A839B107D9F726E0A8E9B0E001C01D927C
S1130080A43EB207E1F70E9480000C94BE0C0C94CD
S11300900000EC0120E045E050E0BE018091E20662
S11300A09091E3060E944F04F5CFCF93DF93CDB731
S11300B0DEB765970FB6F894DEBF0FBECDBF45E03F
S11300C050E0BE01655F7F4F8091E2069091E306A8
S11300D00E94F004813099F78B854AE0BE016F5F7E
S11300E07F4F90E00E94890CCE0101960E94340259
S11300F080E20E943002CE010C960E943402DFCFCF
S1130100CF93DF93CDB7DEB76E970FB6F894DEBF0B
S11301100FBECDBF88E0E1E6F0E0DE01119601906C
S11301200D928A95E1F7CE0101960E94BA0140E052
S11301306BE083E00E940D049093E3068093E20653
S113014086E1E9E6F0E0DE01199601900D928A95C8
S1130150E1F7E12CF12C01E09E01275F3F4F44E6DB
S113016050E06FE770E089E490E00E9421069E0170
S11301702C5E3F4F44E650E065E870E089E490E08F
S11301800E94210602E020E030E044E650E06BE803
S113019070E085E590E00E9421060E944C07FFCFA5
S11301A01F920F920FB60F9211242F933F934F93E8
S11301B05F936F937F938F939F93AF93BF93EF93CB
S11301C0FF93E0919C00F0919D000995FF91EF91C0
S11301D0BF91AF919F918F917F916F915F914F915B
S11301E03F912F910F900FBE0F901F9018951F9263
S11301F00F920FB60F9211242F933F934F935F9357
S11302006F937F938F939F93AF93BF93EF93FF93DA
S1130210E0919A00F0919B000995FF91EF91BF91B5
S1130220AF919F918F917F916F915F914F913F918A
S11302302F910F900FBE0F901F9018951F920F9241
S11302400FB60F9211242F933F934F935F936F93A5
S11302507F938F939F93AF93BF93EF93FF93E0911B
S11302609800F09199000995FF91EF91BF91AF919A
S11302709F918F917F916F915F914F913F912F91BA
S11302800F900FBE0F901F9018951F920F920FB6EC
S11302900F9211242F933F934F935F936F937F9308
S11302A08F939F93AF93BF93EF93FF93E091A2003B
S11302B0F091A3000995FF91EF91BF91AF919F91A8
S11302C08F917F916F915F914F913F912F910F90FB
S11302D00FBE0F901F9018951F920F920FB60F929A
S11302E011242F933F934F935F936F937F938F9337
S11302F09F93AF93BF93EF93FF93E091A000F0918E
S1130300A1000995FF91EF91BF91AF919F918F91BA
S11303107F916F915F914F913F912F910F900FBEFD
S11303200F901F9018951F920F920FB60F921124E1
S11303302F933F934F935F936F937F938F939F93E9
S1130340AF93BF93EF93FF93E0919E00F0919F00D2
S11303500995FF91EF91BF91AF919F918F917F91FB
S11303606F915F914F913F912F910F900FBE0F901E
S11303701F901895CF93DF93EC018A818130E9F4C3
S1130380599A28813981C901A0E0B0E0880F991FEA
S1130390AA1FBB1F880F991FAA1FBB1F9C01AD0179
S11303A0220F331F441F551F60E074E284EF90E076
S11303B00E945E0C2150310920C05998288139814E
S11303C0C901A0E0B0E0880F991FAA1FBB1F880FC6
S11303D0991FAA1FBB1F9C01AD01220F331F441F8D
S11303E0551F220F331F441F551F60E074E284EF32
S11303F090E00E945E0C2150310929B930BD9B81E7
S1130400973029F4529A80B5866880BD05C080B5BE
S1130410990F8068892B80BD20B59D8130E1939F21
S1130420C0011124922F9068892B80BD80B59C81D6
S1130430990F990F990F8068892B80BD9AB18E818D
S1130440880F880F880F892B8AB92AB19F8130E1E0
S1130450939FC0011124822B8AB9DF91CF91089513
S11304605D9BFECF8CB908950F931F93CF93FC012E
S11304708081882359F08F01C0E00E943002CF5F51
S1130480F801EC0FF11D80818111F7CFCF911F91FD
S11304900F910895CF93DF93EC010E947807809128
S11304A0A4009091A500892B31F488EA90E0909300
S11304B0A5008093A4002097C9F08091A600909194
S11304C0A7009E01280F391F2B3D45E0340788F40F
S11304D08217930788F4C091A400D091A500C80F97
S11304E0D91F3093A7002093A60008C0C0E0D0E035
S11304F005C0C0E0D0E002C0C0E0D0E00E949D088A
S1130500CE01DF91CF9108950895FC010396928363
S113051081832FEF3FEF34832383968385839087F2
S1130520878310820895FC01118610860895CF9365
S1130530DF93EB01488159814F3F2FEF520721F49C
S1130540FC01A781B0850DC0DC01139601C0DF0159
S11305501296ED91FC911397208131814217530734
S1130560B0F71296ED91FC911397FB83EA83D58340
S1130570C483BD83AC831396DC93CE93129799877F
S11305808887FC0120812F5F2083DF91CF9108951C
S1130590CF93DF93FC01A085B185C281D38184818F
S11305A095819D838C83C481D581828193819B8332
S11305B08A8311968D919C911297E817F90731F46B
S11305C08481958112969C938E931197118610863F
S11305D08C9181508C938C91DF91CF9108950FB6BB
S11305E0F8940F92FC01928D0F900FBE81E091114F
S11305F080E008950F931F93CF93DF93EC01042FB2
S11306001A8D4C8D4423B9F1011116C050E08A8132
S11306109B810E94800C2C8D8A819B81820F911D6D
S11306209B838A832C813D818217930720F18881E3
S113063099819B838A831FC050E08E819F810E9491
S1130640800C8C8D90E09195819591092E813F814C
S1130650280F391F3F832E8348815981241735077A
S113066030F42C813D81820F931F9F838E8302304F
S113067011F4111111501F5F1A8F80E0DF91CF9197
S11306801F910F910895FC01448D4423A9F050E07B
S113069026813781240F351F3783268384819581F2
S11306A02817390720F08081918197838683CB01B5
S11306B0668177810E94800C0895EF92FF920F93D8
S11306C01F93CF938C010FB6F8940F92FC01C68D43
S11306D01C16ACF48189811106C011C0F80181890E
S11306E0811105C00CC07801F1E1EF0EF11CC701C6
S11306F00E94F30981110E94ED0AC15079F78FEF2E
S1130700F801868F0F900FBE0FB6F8940F92C58D27
S11307101C16ACF48085811106C011C0F8018085D7
S1130720811105C00CC07801F8E0EF0EF11CC7017F
S11307300E94F30981110E94ED0AC15079F78FEFED
S1130740F801858F0F900FBECF911F910F91FF90ED
S1130750EF900895EF92FF920F931F93CF93DF933F
S1130760FC01362F892B09F44CC0238D222309F474
S11307704AC0022F10E0448DE42EF12C8FEF9FEF3E
S1130780B8010E944A0C6E157F0508F43EC0EF01C3
S11307900FB6F8940F9260817181CB01249F800D74
S11307A0911D112495838483128E73836283015077
S11307B011090E9DC0010F9D900D1E9D900D1124D9
S11307C0860F971F978386838FEF858F868F3111CE
S11307D00CC08085882389F0CF0108960E94F30914
S11307E0882359F00E94920B08C0CF0108960E94FA
S11307F08502CE0141960E9485020F900FBE81E0D2
S113080005C080E003C080E001C080E0DF91CF91AB
S11308101F910F91FF90EF9008950F931F93CF9323
S1130820DF93282F362F882361F1682F70E08FEF34
S11308309FEF0E944A0C832F90E06817790720F1FC
S1130840239FC0011124813E4FEF940700F5D32F5D
S1130850C22F4F960E944A028C010097D1F0D11109
S113086004C0FC019183808304C04F96F8019183F6
S11308708083F801C38FD48F61E0C8010E94AA036A
S113088008C000E010E005C000E010E002C000E095
S113089010E0C801DF91CF911F910F9108959F92AD
S11308A0AF92BF92CF92DF92EF92FF920F931F937A
S11308B0CF93DF9300D000D01F92CDB7DEB78C0169
S11308C06B015D834C83A22EB12C992493947C01FB
S11308D088E0E80EF11C0FB6F8940F92F801928D9F
S11308E0838D981718F0F2E0AF1219C04A2DB601A3
S11308F0C8010E94FA02F8019189992349F0C801BC
S113090041960E94F309882331F00E94920B03C0A0
S113091081110E94920B0F900FBE81E050C08C8118
S11309209D81892B21F40F900FBE80E048C0B11047
S113093005C0CE0101960E94B10AB92C0F900FBEDA
S11309400E9478070FB6F8940F92F801858D8F3FB7
S113095009F4158EF801868D8F3F09F4168E0F90D9
S11309600FBEBE016C5F7F4FCE0101960E94BC0A90
S113097081111FC00FB6F8940F92F801928D0F9059
S11309800FBE838D98130FC06C817D81C7010E94B7
S1130990E109C8010E945D030E949D0881119BCF5B
S11309A00E94920B98CFC8010E945D030E949D088B
S11309B092CFC8010E945D030E949D0880E00F90C1
S11309C00F900F900F900F90DF91CF911F910F9187
S11309D0FF90EF90DF90CF90BF90AF909F900895DD
S11309E09F92AF92BF92CF92DF92EF92FF920F93BA
S11309F01F93CF93DF9300D000D01F92CDB7DEB703
S1130A008C015B015D834C83E12C992493946C01EC
S1130A1081E1C80ED11C0FB6F8940F92F801F28C44
S1130A20FF20A9F0B501C8010E944303FA94F8011C
S1130A30F28E8085882339F0C80108960E94F30954
S1130A4081110E94920B0F900FBE81E051C08C81E6
S1130A509D81892B21F40F900FBE80E049C0E110E5
S1130A6005C0CE0101960E94B10AE92C0F900FBE79
S1130A700E9478070FB6F8940F92F801858D8F3F86
S1130A8009F4158EF801868D8F3F09F4168E0F90A8
S1130A900FBEBE016C5F7F4FCE0101960E94BC0A5F
S1130AA081111AC0C8010E94EF02882379F06C8179
S1130AB07D81C6010E94E109C8010E945D030E9474
S1130AC09D088111A8CF0E94920BA5CFC8010E9456
S1130AD05D030E949D089FCFC8010E945D030E9490
S1130AE09D08C8010E94EF02882309F494CF80E096
S1130AF00F900F900F900F900F90DF91CF911F9157
S1130B000F91FF90EF90DF90CF90BF90AF909F90A8
S1130B100895E091A806F091A9068081811107C08B
S1130B208FEF9FEF90938806809387060895E09156
S1130B30A806F091A9060580F681E02D80819181B7
S1130B409093880680938706089504E916E00F2E93
S1130B50FCEBEF2EF6E0FF2EF02D80919306882318
S1130B6029F10FB6F8940F92D8011596ED91FC91E6
S1130B701697C681D781CE0102960E94C802809141
S1130B8092068150809392068091930681508093BF
S1130B9093060F900FBE8F89988D0E948402CE0118
S1130BA00E948402809193068111DBCFF70180813A
S1130BB0823098F20E94920BD0CF0F931F93CF9361
S1130BC0DF93EC0100919006109191068091E0066C
S1130BD09091E10602960E94C802C00FD11FE091D5
S1130BE0E006F091E106D383C283C017D10768F40D
S1130BF06091E0067091E1068091A6069091A706A7
S1130C006E5F7F4F0E94970217C06091E00670915B
S1130C10E1068091A8069091A9066E5F7F4F0E941D
S1130C2097028091870690918806C817D90720F407
S1130C30D0938806C0938706DF91CF911F910F91BF
S1130C4008954F925F926F927F928F929F92AF928C
S1130C50BF92CF92DF92EF92FF920F93CF93DF93E5
S1130C604C016B015A012901CA010E944A023C014C
S1130C70892B09F400C186E290E00E944A02EC014B
S1130C80892B81F086E2DE011D928A95E9F7788E40
S1130C906F8AB1E0AB1AB108A60CB71CC114D10419
S1130CA029F41EC0C3010E948402E5C0F6018081BC
S1130CB0898F8081882399F0AE01465E5F4F31961B
S1130CC088E0C80ED11CCF012191DA012D93AD012A
S1130CD0DC018C91882319F0EC15FD05A1F718A20D
S1130CE0043008F003E00E8B6E01B2E0CB0ED11C91
S1130CF0C6010E949302CE010C960E949302D987EA
S1130D00C88784E090E0801B91099D878C87DB8BEA
S1130D10CA8BA201B401C5010E94F10A9983888398
S1130D20E114F10419F0F701D183C0830FB6F894EC
S1130D300F92809192068F5F809392068091E006D5
S1130D409091E106892BA9F5D093E106C093E006C2
S1130D50809192068130E9F58CEB96E00E94850241
S1130D6085EC96E00E9485028EEC96E00E94850256
S1130D7087ED96E00E94850283EB96E00E9485024F
S1130D808AEA96E00E9485028DE996E00E94850237
S1130D9084E996E00E94850283EB96E09093A9068D
S1130DA08093A8068AEA96E09093A7068093A60605
S1130DB010C080918E0681110CC0E091E006F09184
S1130DC0E10696898E89891720F0D093E106C093B5
S1130DD0E006809189068F5F809389068E899091C1
S1130DE08F06981710F480938F0690E0FC01EE0FA5
S1130DF0FF1FEE0FFF1FEE0FFF1F8E0F9F1FFC0143
S1130E00E454F94F0180F281E02DFD83EC83848169
S1130E1095819F838E83A481B5811396DC92CE92B3
S1130E201297D582C482EE89F0E0CF01880F991F12
S1130E30880F991F880F991FE80FF91FE454F94F81
S1130E40FB87EA8780818F5F80830F900FBE80913C
S1130E508E06882361F0E091E006F091E106968920
S1130E608E89981730F40E94920B81E005C081E0CE
S1130E7003C081E001C08FEFDF91CF910F91FF900C
S1130E80EF90DF90CF90BF90AF909F908F907F9026
S1130E906F905F904F900895EF92FF920F930F2EF3
S1130EA0F5E8EF2EF6E0FF2EF02D00E020E030E034
S1130EB045E550E062E970E085EA95E00E9421068C
S1130EC0813081F4F8948FEF9FEF9093880680939C
S1130ED0870681E080938E06109291061092900608
S1130EE00E945D0B809160000F91FF90EF90089538
S1130EF0809184068F5F809384060895EF92FF9219
S1130F000F931F93CF93DF9380918406811104C1C3
S1130F10C0919006D09191067E018FEFE81AF80AED
S1130F20F0929106E0929006E114F104B9F48091F4
S1130F30A8069091A9062091A6063091A7063093A1
S1130F40A9062093A8069093A7068093A6068091ED
S1130F508A068F5F80938A060E948905809187069E
S1130F6090918806E816F90610F480E0B9C080E094
S1130F7061E0E091A806F091A9069081911107C063
S1130F802FEF3FEF3093880620938706A9C0E091A6
S1130F90A806F091A9060580F681E02D0680F78168
S1130FA0E02D22813381E216F30628F4309388067B
S1130FB02093870695C0A285B38524813581468117
S1130FC05781E9015D834C832681378144815581B2
S1130FD0E9015B834A83AF014E5F5F4F11962D9108
S1130FE03C9112972417350731F4268137811296E4
S1130FF03C932E931197138612869C9191509C9347
S1131000A489B589109719F1268537850089118936
S1131010E9011D830C832089318906851785E9013F
S11310201B830A8311960D911C9112979F01245FD3
S11310303F4F0217130731F42089318912963C93EC
S11310402E931197158A148A9C9191509C9326890A
S113105090918F06921710F420938F0630E0D901F7
S1131060AA0FBB1FAA0FBB1FAA0FBB1F2A0F3B1F30
S1131070D901A454B94F11960D90BC91A02DB583FC
S1131080A48314962D913C91159737832683149647
S11310902D913C911597E9015B834A8315965C93E6
S11310A04E931497A689B0E09D01220F331F220F9F
S11310B0331F220F331FA20FB31FA454B94FB3879A
S11310C0A2879C919F5F9C93A091E006B091E1065A
S11310D0268956969C91921708F04BCF862F49CFBC
S11310E0E091E006F091E106268930E0F901EE0F87
S11310F0FF1FEE0FFF1FEE0FFF1F2E0F3F1FF90103
S1131100E454F94F9081923008F081E090918B067D
S1131110992361F081E00AC080918C0690918D063C
S1131120019690938D0680938C0680E0DF91CF9199
S11311301F910F91FF90EF9008951F93CF93DF932A
S11311400FB6F8940F9280918406815080938406A0
S1131150809184068111C6C08091920681119BC042
S1131160C4C0DB011596ED91FC9116970680F781BA
S1131170E02DA489B5898685978520893189EC017C
S11311803D832C838089918926853785EC013B83B7
S11311902A83CF010C9611962D913C911297281712
S11311A0390731F48089918912969C938E93119713
S11311B0158A148A8C9181508C93A285B38584817D
S11311C0958126813781EC013D832C83868197812B
S11311D024813581EC013B832A839F012E5F3F4F9D
S11311E011968D919C9112978217930731F4868101
S11311F0978112969C938E931197138612868C91E5
S113120081508C93868990918F06981710F480935F
S11312108F0690E0DC01AA0FBB1FAA0FBB1FAA0F09
S1131220BB1F8A0F9B1FDC01A454B94F11960D906C
S1131230BC91A02DB583A48314968D919C91159790
S11312409783868314968D919C911597EC013B832B
S11312502A8315963C932E931497A689B0E0CD016A
S1131260880F991F880F991F880F991FA80FB91FFE
S1131270A454B94FB387A2878C918F5F8C93A091AC
S1131280E006B091E106968956968C91981740F045
S113129040938B0605C0E0E0F0E06DE976E041E0C4
S11312A0DB018C9181115DCFEF2B11F00E94890538
S11312B0C0918C06D0918D06209761F011E00E94B8
S11312C07E07811110938B062197C9F710928D0622
S11312D010928C0680918B06882331F00E94920B29
S11312E081E003C080E001C080E00F900FBEDF9179
S11312F0CF911F91089580918406882321F081E085
S113130080938B06089510928B0620918F06822F6E
S113131090E0FC01EE0FFF1FEE0FFF1FEE0FFF1F0B
S1131320E80FF91FE454F94F3081311111C02150F5
S1131330822F90E0FC01EE0FFF1FEE0FFF1FEE0F58
S1131340FF1FE80FF91FE454F94F3081332379F379
S1131350AC01440F551F440F551F440F551F480F30
S1131360591FDA01A454B94F1196ED91FC911297CB
S11313700280F381E02D1296FC93EE931197415471
S1131380594FE417F50729F442815381FD01528333
S11313904183FC01EE0FFF1FEE0FFF1FEE0FFF1F37
S11313A08E0F9F1FFC01E454F94F0180F281E02D60
S11313B0868197819093E1068093E00620938F06BF
S11313C00895CF93DF93EB016091E0067091E106FD
S11313D0645F7F4F0E94970261E0CE010E94DD05A9
S11313E0DF91CF910895CF93DF93DC011596ED91B2
S11313F0FC9116970680F781E02DA489B589C685EE
S1131400D785808991899D838C83C089D18986857C
S113141097859B838A839F01245F3F4F11968D910B
S11314209C9112978217930731F4808991891296BF
S11314309C938E931197158A148A8C9181508C9366
S113144080918406811160C0A285B385C481D58151
S1131450868197819D838C83C681D7818481958180
S11314609B838A839F012E5F3F4F11968D919C91A0
S113147012978217930731F48681978112969C9371
S11314808E931197138612868C9181508C93868942
S113149090918F06981710F480938F0690E0DC01EA
S11314A0AA0FBB1FAA0FBB1FAA0FBB1F8A0F9B1F2C
S11314B0DC01A454B94F11960D90BC91A02DB583B5
S11314C0A48314968D919C91159797838683149683
S11314D0CD91DC9115973B832A8315963C932E93EB
S11314E01497A689B0E0CD01880F991F880F991F22
S11314F0880F991FA80FB91FA454B94FB387A287A7
S11315008C918F5F8C931CC04DE956E0DA011196E3
S1131510CD91DC911297D787C6878C819D81918B61
S1131520808B8C819D81DC0113963C932E931297C2
S11315303D832C83558B448BDA018C918F5F8C9384
S1131540A091E006B091E106968956968C91891790
S113155020F481E080938B0601C080E0DF91CF917D
S1131560089520918A06FC012083209190063091F1
S113157091063283218308950FB6F8940F92209137
S1131580900630919106DC0111964D915C91129771
S1131590E0918A06FC91FE1741F02417350728F0E4
S11315A0FB011182108281E015C0241B350BDB0185
S11315B04D915C912417350748F4FB01421B530BF2
S11315C0518340830E94B10A80E004C0FB01118270
S11315D0108281E00F900FBE089581E080938B0606
S11315E0089531E1FC013083319722E22083319761
S11315F0A3E3A0833197608331977083319710827E
S1131600319760E8608331971082319762E060839C
S1131610319763E06083319764E06083319765E0DC
S11316206083319766E06083319767E06083319728
S113163068E06083319769E06083319760E160839B
S113164031973083319732E13083319733E13083FE
S1131650319734E13083319735E13083319736E186
S11316603083319737E13083319738E130833197D4
S113167039E13083319730E23083319731E230837E
S113168031972083319723E2208331974083319728
S11316905083319726E22083319727E220833197C4
S11316A028E22083319729E22083319720E32083A5
S11316B0319721E32083869708951BBC89EF8ABD67
S11316C08BE08EBD89B7806189BFA091E006B0919F
S11316D0E106CD91CDBFDD91DEBFFF91EF91DF91AA
S11316E0CF91BF91AF919F918F917F916F915F91B6
S11316F04F913F912F911F910F91FF90EF90DF90A9
S1131700CF90BF90AF909F908F907F906F905F909D
S11317104F903F902F901F900F900FBE0F90089501
S113172081E008950F920FB6F8940F921F9211243E
S11317302F923F924F925F926F927F928F929F92DD
S1131740AF92BF92CF92DF92EF92FF920F931F93CB
S11317502F933F934F935F936F937F938F939F93B5
S1131760AF93BF93CF93DF93EF93FF93A091E006E2
S1131770B091E1060DB60D920EB60D920E947B0952
S1131780A091E006B091E106CD91CDBFDD91DEBF21
S1131790FF91EF91DF91CF91BF91AF919F918F9185
S11317A07F916F915F914F913F912F911F910F9175
S11317B0FF90EF90DF90CF90BF90AF909F908F906D
S11317C07F906F905F904F903F902F901F900F905D
S11317D00FBE0F9008950F920FB6F8940F921F92B8
S11317E011242F923F924F925F926F927F928F9229
S11317F09F92AF92BF92CF92DF92EF92FF920F939C
S11318001F932F933F934F935F936F937F938F9384
S11318109F93AF93BF93CF93DF93EF93FF93A091E5
S1131820E006B091E1060DB60D920EB60D920E943F
S11318307E0781110E947B09A091E006B091E10628
S1131840CD91CDBFDD91DEBFFF91EF91DF91CF91BF
S1131850BF91AF919F918F917F916F915F914F91C4
S11318603F912F911F910F91FF90EF90DF90CF90B8
S1131870BF90AF909F908F907F906F905F904F90AC
S11318803F902F901F900F900FBE0F9008950E94CD
S1131890EB0B1895AA1BBB1B51E107C0AA1FBB1F6A
S11318A0A617B70710F0A61BB70B881F991F5A95E8
S11318B0A9F780959095BC01CD010895A1E21A2E57
S11318C0AA1BBB1BFD010DC0AA1FBB1FEE1FFF1FE0
S11318D0A217B307E407F50720F0A21BB30BE40B30
S11318E0F50B661F771F881F991F1A9469F7609577
S11318F07095809590959B01AC01BD01CF01089531
S1131900FB01DC0102C001900D9241505040D8F718
S11319100895BB274A3031F4992322F4BDE290950F
S113192081959F4F0C94950CBB27FB015527AA2743
S1131930880F991FAA1FA41710F0A41B8395505158
S1131940B9F7A05DAA3308F0A95DA193009779F7D0
S1131950B111B1931192CB010C94AE0CDC01FC01DA
S1131960672F71917723E1F7329704C07C916D93CF
S113197070836291AE17BF07C8F30895F894FFCF40
S1131980038025000300000101644F696C0A0D0007
S113199000000000C853706565640A0D000000541F
S11319A061736B31005461736B3200785072696EED
S10B19B0740049444C45000099
S9030000FC
