S01600005365765F5365676D656E747356322E73726563B3
S11300000C9434000C943E000C943E000C943E007E
S11300100C943E000C943E000C943E000C943E0064
S11300200C943E000C943E000C943E000C943E0054
S11300300C943E000C943E000C943E000C943E0044
S11300400C943E000C943E000C943E000C943E0034
S11300500C943E007F019401A901BE01D301E80183
S1130060FD01120227023C0211241FBECFE5D8E095
S1130070DEBFCDBF0E9440000C94D2030C9400005C
S113008081E00E942D0182E00E942D01C0E008C0A1
S113009040E050E060EA70E48C2F0E946F02CF5F72
S11300A0C436B0F3F3CF813001F130F08230B1F1D6
S11300B0833009F44CC00895413059F42AB381E0E7
S11300C090E002C0880F991F6A95E2F7822B8ABBE1
S11300D008952AB381E090E002C0880F991F6A95C1
S11300E0E2F7809582238ABB0895413059F427B3FF
S11300F081E090E002C0880F991F6A95E2F7822B95
S113010087BB089527B381E090E002C0880F991F50
S11301106A95E2F78095822387BB0895413059F4AC
S113012024B381E090E002C0880F991F6A95E2F73A
S1130130822B84BB089524B381E090E002C0880F31
S1130140991F6A95E2F78095822384BB0895413014
S113015059F421B381E090E002C0880F991F6A9599
S1130160E2F7822B81BB089521B381E090E002C0C5
S1130170880F991F6A95E2F78095822381BB0895C1
S1130180813001F130F08230B1F1833009F44CC098
S11301900895413059F42BB381E090E002C0880FF8
S11301A0991F6A95E2F7822B8BBB08952BB381E0EC
S11301B090E002C0880F991F6A95E2F78095822328
S11301C08BBB0895413059F428B381E090E002C01C
S11301D0880F991F6A95E2F7822B88BB089528B38C
S11301E081E090E002C0880F991F6A95E2F780953C
S11301F0822388BB0895413059F425B381E090E00F
S113020002C0880F991F6A95E2F7822B85BB089577
S113021025B381E090E002C0880F991F6A95E2F748
S11302208095822385BB0895413059F422B381E03F
S113023090E002C0880F991F6A95E2F7822B82BB77
S1130240089522B381E090E002C0880F991F6A9557
S1130250E2F78095822382BB0895CF93C82F41E0B3
S113026064E080E00E94530041E065E080E00E9489
S1130270530041E066E080E00E94530041E067E003
S113028080E00E945300C13059F441E062E081E013
S11302900E94530041E062E081E00E94C00023C05C
S11302A0C23059F441E061E081E00E94530041E032
S11302B061E081E00E94C00016C0C330A1F441E0B7
S11302C062E081E00E94530041E062E081E00E942C
S11302D0C00041E061E081E00E94530041E061E040
S11302E081E00E94C000CF91089590E08A3091058A
S11302F008F0D6C0FC01E65DFF4F0C94BD0340E05E
S113030064E080E00E94C00040E065E080E00E947C
S1130310C00040E066E080E00E94C00040E067E08A
S113032080E00E94C000089541E064E080E00E9403
S1130330C00040E065E080E00E94C00040E066E06C
S113034080E00E94C00040E067E080E00E94C000BE
S1130350089540E064E080E00E94C00041E065E070
S113036080E00E94C00040E066E080E00E94C0009F
S113037040E067E080E00E94C000089541E064E04E
S113038080E00E94C00041E065E080E00E94C0007F
S113039040E066E080E00E94C00040E067E080E06A
S11303A00E94C000089540E064E080E00E94C00024
S11303B040E065E080E00E94C00041E066E080E04B
S11303C00E94C00040E067E080E00E94C000089501
S11303D041E064E080E00E94C00040E065E080E02D
S11303E00E94C00041E066E080E00E94C00040E05E
S11303F067E080E00E94C000089540E064E080E08F
S11304000E94C00041E065E080E00E94C00041E03D
S113041066E080E00E94C00040E067E080E00E9467
S1130420C000089541E064E080E00E94C00041E023
S113043065E080E00E94C00041E066E080E00E9448
S1130440C00040E067E080E00E94C000089540E002
S113045064E080E00E94C00040E065E080E00E942B
S1130460C00040E066E080E00E94C00041E067E038
S113047080E00E94C000089541E064E080E00E94B2
S1130480C00040E065E080E00E94C00040E066E01B
S113049080E00E94C00041E067E080E00E94C0006C
S11304A00895813029F440E062E00E94C00008957C
S11304B0823029F440E061E081E00E94C0000895A8
S11304C0813029F441E062E00E94C0000895823046
S11304D029F441E061E081E00E94C0000895EF92B8
S11304E0FF920F931F93CF93DF93C82FCB01BA01D1
S11304F020E030E04AE754E40E9428030E94D0023E
S11305007B01C43608F045C01DECC19F112D112498
S1130510012F069506950695000F802F880F880FEA
S1130520080FC01B0C2F169516951695C0E0D0E049
S113053022C081E00E94510282E00E945102812F78
S11305400E94750181E00E94600283EC99E00197AA
S1130550F1F700C0000081E00E945102802F0E9448
S1130560750182E00E94600283EC99E00197F1F743
S113057000C0000021969701ADECBCEC0E94C303BF
S1130580929582958F7089279F708927C817D907FC
S113059080F2DF91CF911F910F91FF90EF9008951A
S11305A00E94070388F09F5798F0B92F9927B751F5
S11305B0B0F0E1F0660F771F881F991F1AF0BA9503
S11305C0C9F714C0B13091F00E942103B1E008953D
S11305D00C942103672F782F8827B85F39F0B93F2F
S11305E0CCF3869577956795B395D9F73EF49095B6
S11305F08095709561957F4F8F4F9F4F089557FD5C
S11306009058440F551F59F05F3F71F04795880F7C
S113061097FB991F61F09F3F79F087950895121613
S113062013061406551FF2CF4695F1DF08C01616BF
S113063017061806991FF1CF869571056105089470
S11306400895E894BB2766277727CB0197F9089587
S11306500E943B030C94AC030E949E0338F00E945A
S1130660A50320F0952311F00C9495030C949B039F
S113067011240C9422030E94FF0270F3959FC1F38E
S1130680950F50E0551F629FF001729FBB27F00D3C
S1130690B11D639FAA27F00DB11DAA1F649F662791
S11306A0B00DA11D661F829F2227B00DA11D621FE0
S11306B0739FB00DA11D621F839FA00D611D221F9A
S11306C0749F3327A00D611D231F849F600D211D7E
S11306D0822F762F6A2F11249F5750409AF0F1F001
S11306E088234AF0EE0FFF1FBB1F661F771F881F6A
S11306F091505040A9F79E3F510580F00C9495030A
S11307000C9422035F3FE4F3983ED4F386957795E7
S11307106795B795F795E7959F5FC1F7FE2B880F0F
S1130720911D9695879597F9089597F99F6780E8A5
S113073070E060E008959FEF80EC089500240A942F
S11307401616170618060906089500240A941216A8
S11307501306140605060895092E0394000C11F4DB
S1130760882352F0BB0F40F4BF2B11F460FF04C088
S11307706F5F7F4F8F4F9F4F0895EE0FFF1F0590C0
S1130780F491E02D0994A29FB001B39FC001A39FEF
S1130790700D811D1124911DB29F700D811D1124B6
S10B07A0911D0895F894FFCFA8
S9030000FC
