S0140000507573685F427574746F6E322E7372656363
S11300000C942A000C9434000C9434000C943400A6
S11300100C9434000C9434000C9434000C9434008C
S11300200C9434000C9434000C9434000C9434007C
S11300300C9434000C9434000C9434000C9434006C
S11300400C9434000C9434000C9434000C9434005C
S11300500C94340011241FBECFE5D8E0DEBFCDBF21
S11300600E9462010C94B4010C940000813021F1CF
S113007030F08230F1F1833009F458C008954130F2
S113008069F4EAE1F0E0208181E090E002C0880FA9
S1130090991F6A95E2F7822B80830895EAE1F0E0E4
S11300A0208181E090E002C0880F991F6A95E2F7F1
S11300B08095822380830895413069F4E7E1F0E07C
S11300C0208181E090E002C0880F991F6A95E2F7D1
S11300D0822B80830895E7E1F0E0208181E090E0C5
S11300E002C0880F991F6A95E2F780958223808366
S11300F00895413069F4E4E1F0E0208181E090E08A
S113010002C0880F991F6A95E2F7822B80830895B5
S1130110E4E1F0E0208181E090E002C0880F991FC3
S11301206A95E2F78095822380830895413069F4CB
S1130130E1E1F0E0208181E090E002C0880F991FA6
S11301406A95E2F7822B80830895E1E1F0E0208153
S113015081E090E002C0880F991F6A95E2F78095CC
S1130160822380830895813081F028F08230B9F0B1
S11301708330F9F028C08091190090E002C0959571
S113018087956A95E2F7817008958091160090E052
S113019002C0959587956A95E2F7817008958091DC
S11301A0130090E002C0959587956A95E2F78170F7
S11301B008958091100090E002C0959587956A9506
S11301C0E2F78170089580E00895813021F130F0E4
S11301D08230F1F1833009F458C00895413069F454
S11301E0EBE1F0E0208181E090E002C0880F991FEC
S11301F06A95E2F7822B80830895EBE1F0E0208199
S113020081E090E002C0880F991F6A95E2F780951B
S1130210822380830895413069F4E8E1F0E020818D
S113022081E090E002C0880F991F6A95E2F7822B63
S113023080830895E8E1F0E0208181E090E002C04D
S1130240880F991F6A95E2F7809582238083089529
S1130250413069F4E5E1F0E0208181E090E002C002
S1130260880F991F6A95E2F7822B80830895E5E150
S1130270F0E0208181E090E002C0880F991F6A9528
S1130280E2F78095822380830895413069F4E2E1A6
S1130290F0E0208181E090E002C0880F991F6A9508
S11302A0E2F7822B80830895E2E1F0E0208181E08F
S11302B090E002C0880F991F6A95E2F78095822327
S11302C08083089541E060E080E00E94360041E0D0
S11302D061E080E00E94360041E062E080E00E943C
S11302E0360040E060E082E00E94360041E060E0D9
S11302F082E00E94E500C0E060E082E00E94B3007A
S1130300813039F4CF5F8FE097E20197F1F700C0B5
S11303100000C13061F028F0C23079F0C33099F0A8
S1130320EBCF41E060E080E00E94E500E5CF41E0F2
S113033061E080E00E94E500DFCF41E062E080E020
S11303400E94E500D9CF40E060E080E00E94E50033
S113035040E061E080E00E94E50040E062E080E08F
S10F03600E94E500C0E0C8CFF894FFCF75
S9030000FC
