S01000004C4544204C494E452E73726563F7
S11300000C942A000C9434000C9434000C943400A6
S11300100C9434000C9434000C9434000C9434008C
S11300200C9434000C9434000C9434000C9434007C
S11300300C9434000C9434000C9434000C9434006C
S11300400C9434000C9434000C9434000C9434005C
S11300500C94340011241FBECFE5D8E0DEBFCDBF21
S11300600E9436000C942B020C94000041E060E0E6
S113007082E00E94510141E067E082E00E94510168
S113008041E060E083E00E94510141E067E083E0E9
S11300900E94510141E060E081E00E94510141E091
S11300A067E081E00E94510141E060E080E00E944D
S11300B0510141E067E080E00E94510141E060E0CD
S11300C082E00E94BE012FE38DE093E02150804046
S11300D09040E1F700C0000041E067E082E00E9448
S11300E0BE012FE38DE093E0215080409040E1F782
S11300F000C0000041E060E083E00E94BE012FE305
S11301008DE093E0215080409040E1F700C0000072
S113011041E067E083E00E94BE012FE38DE093E0BD
S1130120215080409040E1F700C0000041E067E0CA
S113013081E00E94BE012FE38DE093E021508040D6
S11301409040E1F700C0000041E060E081E00E94DF
S1130150BE012FE38DE093E0215080409040E1F711
S113016000C0000041E067E080E00E94BE012FE390
S11301708DE093E0215080409040E1F700C0000002
S113018041E060E080E00E94BE0187EA91E60197C9
S1130190F1F700C0000040E067E080E00E94BE018B
S11301A040E060E081E00E94BE0140E067E081E061
S11301B00E94BE0140E067E083E00E94BE0140E08F
S11301C060E083E00E94BE0140E067E082E00E94BC
S11301D0BE0140E060E082E00E94BE019FE12FEB9F
S11301E082E0915020408040E1F700C0000041E0EF
S11301F067E080E00E94BE019FE32DE083E0915020
S113020020408040E1F700C0000041E060E081E070
S11302100E94BE019FE32DE083E091502040804086
S1130220E1F700C0000041E067E081E00E94BE0108
S11302309FE32DE083E0915020408040E1F700C02F
S1130240000041E067E083E00E94BE019FE32DE0EF
S113025083E0915020408040E1F700C0000041E07D
S113026060E083E00E94BE019FE32DE083E09150B3
S113027020408040E1F700C0000041E067E082E0F8
S11302800E94BE019FE32DE083E091502040804016
S1130290E1F700C0000041E060E082E00E94BE019E
S11302A00DCF813001F130F08230B1F1833009F4A7
S11302B04CC00895413059F42AB381E090E002C063
S11302C0880F991F6A95E2F7822B8ABB08952AB397
S11302D081E090E002C0880F991F6A95E2F780954B
S11302E082238ABB0895413059F427B381E090E01A
S11302F002C0880F991F6A95E2F7822B87BB089585
S113030027B381E090E002C0880F991F6A95E2F755
S11303108095822387BB0895413059F424B381E04A
S113032090E002C0880F991F6A95E2F7822B84BB84
S1130330089524B381E090E002C0880F991F6A9564
S1130340E2F78095822384BB0895413059F421B3A8
S113035081E090E002C0880F991F6A95E2F7822B32
S113036081BB089521B381E090E002C0880F991FFA
S11303706A95E2F78095822381BB0895813001F16B
S113038030F08230B1F1833009F44CC0089541302B
S113039059F42BB381E090E002C0880F991F6A954D
S11303A0E2F7822B8BBB08952BB381E090E002C06F
S11303B0880F991F6A95E2F7809582238BBB089575
S11303C0413059F428B381E090E002C0880F991FAE
S11303D06A95E2F7822B88BB089528B381E090E008
S11303E002C0880F991F6A95E2F78095822388BB23
S11303F00895413059F425B381E090E002C0880F9C
S1130400991F6A95E2F7822B85BB089525B381E095
S113041090E002C0880F991F6A95E2F780958223C5
S113042085BB0895413059F422B381E090E002C0C5
S1130430880F991F6A95E2F7822B82BB089522B335
S113044081E090E002C0880F991F6A95E2F78095D9
S10D0450822382BB0895F894FFCFC5
S9030000FC
