S012000033204C454420776176652E7372656317
S11300000C942A000C9434000C9434000C943400A6
S11300100C9434000C9434000C9434000C9434008C
S11300200C9434000C9434000C9434000C9434007C
S11300300C9434000C9434000C9434000C9434006C
S11300400C9434000C9434000C9434000C9434005C
S11300500C94340011241FBECFE5D8E0DEBFCDBF21
S11300600E9436000C9459010C94000041E063E0B6
S113007083E00E947F0041E067E082E00E947F000D
S113008041E062E082E00E947F0040E062E082E0C2
S11300900E94EC0041E063E083E00E94EC002FEF5B
S11300A083ED90E3215080409040E1F700C00000D0
S11300B040E063E083E00E94EC0041E067E082E01E
S11300C00E94EC002FEF83ED90E32150804090409C
S11300D0E1F700C0000040E067E082E00E94EC002D
S11300E041E062E082E00E94EC002FEF83ED90E3B8
S11300F0215080409040E1F700C00000C6CF81301D
S113010001F130F08230B1F1833009F44CC008952C
S1130110413059F42AB381E090E002C0880F991F5E
S11301206A95E2F7822B8ABB08952AB381E090E0B6
S113013002C0880F991F6A95E2F7809582238ABBD3
S11301400895413059F427B381E090E002C0880F4C
S1130150991F6A95E2F7822B87BB089527B381E044
S113016090E002C0880F991F6A95E2F78095822378
S113017087BB0895413059F424B381E090E002C074
S1130180880F991F6A95E2F7822B84BB089524B3E4
S113019081E090E002C0880F991F6A95E2F780958C
S11301A0822384BB0895413059F421B381E090E067
S11301B002C0880F991F6A95E2F7822B81BB0895CC
S11301C021B381E090E002C0880F991F6A95E2F79D
S11301D08095822381BB0895813001F130F0823013
S11301E0B1F1833009F44CC00895413059F42BB374
S11301F081E090E002C0880F991F6A95E2F7822B94
S11302008BBB08952BB381E090E002C0880F991F47
S11302106A95E2F7809582238BBB0895413059F4A7
S113022028B381E090E002C0880F991F6A95E2F735
S1130230822B88BB089528B381E090E002C0880F28
S1130240991F6A95E2F78095822388BB089541300F
S113025059F425B381E090E002C0880F991F6A9594
S1130260E2F7822B85BB089525B381E090E002C0BC
S1130270880F991F6A95E2F78095822385BB0895BC
S1130280413059F422B381E090E002C0880F991FF5
S11302906A95E2F7822B82BB089522B381E090E055
S11302A002C0880F991F6A95E2F78095822382BB6A
S10902B00895F894FFCF4D
S9030000FC
