S01400005365765F5365676D656E74732E737265633D
S11300000C9434000C943E000C943E000C943E007E
S11300100C943E000C943E000C943E000C943E0064
S11300200C943E000C943E000C943E000C943E0054
S11300300C943E000C943E000C943E000C943E0044
S11300400C943E000C943E000C943E000C943E0034
S11300500C943E0081019601AB01C001D501EA0177
S1130060FF01140229023E0211241FBECFE5D8E08D
S1130070DEBFCDBF0E941A010C9459020C940000FB
S1130080813001F130F08230B1F1833009F44CC099
S11300900895413059F42AB381E090E002C0880FFA
S11300A0991F6A95E2F7822B8ABB08952AB381E0EF
S11300B090E002C0880F991F6A95E2F78095822329
S11300C08ABB0895413059F427B381E090E002C01F
S11300D0880F991F6A95E2F7822B87BB089527B38F
S11300E081E090E002C0880F991F6A95E2F780953D
S11300F0822387BB0895413059F424B381E090E012
S113010002C0880F991F6A95E2F7822B84BB089579
S113011024B381E090E002C0880F991F6A95E2F74A
S11301208095822384BB0895413059F421B381E042
S113013090E002C0880F991F6A95E2F7822B81BB79
S1130140089521B381E090E002C0880F991F6A9559
S1130150E2F78095822381BB0895813001F130F06C
S11301608230B1F1833009F44CC00895413059F420
S11301702BB381E090E002C0880F991F6A95E2F7E3
S1130180822B8BBB08952BB381E090E002C0880FD3
S1130190991F6A95E2F7809582238BBB08954130BD
S11301A059F428B381E090E002C0880F991F6A9542
S11301B0E2F7822B88BB089528B381E090E002C067
S11301C0880F991F6A95E2F78095822388BB08956A
S11301D0413059F425B381E090E002C0880F991FA3
S11301E06A95E2F7822B85BB089525B381E090E000
S11301F002C0880F991F6A95E2F78095822385BB18
S11302000895413059F422B381E090E002C0880F90
S1130210991F6A95E2F7822B82BB089522B381E08D
S113022090E002C0880F991F6A95E2F780958223B7
S113023082BB089582E00E942F01C0E00DC02FEB25
S113024087E299E0215080409040E1F700C000002F
S11302508C2F0E947701CF5FCA3088F3EECFCF9303
S1130260C82F41E064E080E00E94400041E065E086
S113027080E00E94400041E066E080E00E9440008F
S113028041E067E080E00E944000C13059F441E061
S113029062E081E00E94400041E062E081E00E946F
S11302A0AD0023C0C23059F441E061E081E00E9416
S11302B0400041E061E081E00E94AD0016C0C3301F
S11302C0A1F441E062E081E00E94400041E062E08C
S11302D081E00E94AD0041E061E081E00E944000C5
S11302E041E061E081E00E94AD00CF91089590E08B
S11302F08A30910508F0D6C0FC01E65DFF4F0C94EE
S1130300530240E064E080E00E94AD0040E065E01C
S113031080E00E94AD0040E066E080E00E94AD0015
S113032040E067E080E00E94AD00089541E064E0B1
S113033080E00E94AD0040E065E080E00E94AD00F6
S113034040E066E080E00E94AD0040E067E080E0CD
S11303500E94AD00089540E064E080E00E94AD009A
S113036041E065E080E00E94AD0040E066E080E0AE
S11303700E94AD0040E067E080E00E94AD00089577
S113038041E064E080E00E94AD0041E065E080E08F
S11303900E94AD0040E066E080E00E94AD0040E0D5
S11303A067E080E00E94AD00089540E064E080E0F2
S11303B00E94AD0040E065E080E00E94AD0041E0B5
S11303C066E080E00E94AD0040E067E080E00E94CB
S11303D0AD00089541E064E080E00E94AD0040E09B
S11303E065E080E00E94AD0041E066E080E00E94AC
S11303F0AD0040E067E080E00E94AD00089540E079
S113040064E080E00E94AD0041E065E080E00E948D
S1130410AD0041E066E080E00E94AD0040E067E0AE
S113042080E00E94AD00089541E064E080E00E9415
S1130430AD0041E065E080E00E94AD0041E066E08F
S113044080E00E94AD0040E067E080E00E94AD00E3
S1130450089540E064E080E00E94AD0040E065E083
S113046080E00E94AD0040E066E080E00E94AD00C4
S113047041E067E080E00E94AD00089541E064E05F
S113048080E00E94AD0040E065E080E00E94AD00A5
S113049040E066E080E00E94AD0041E067E080E07B
S11304A00E94AD000895EE0FFF1F0590F491E02D1A
S10904B00994F894FFCF4B
S9030000FC
