S00B00004144432E7372656351
S11300000C942A000C943F000C943F000C943F0085
S11300100C943F000C943F000C943F000C943F0060
S11300200C943F000C943F000C943F000C943F0050
S11300300C943F000C943F000C943F000C943F0040
S11300400C943F000C943F000C943F000C943F0030
S11300500C943F0011241FBECFE5D8E0DEBFCDBF16
S113006010E0A0E6B0E0EAEDF1E002C005900D92E8
S1130070A036B107D9F70E94CD000C94EB000C9484
S1130080000083B7896683BF61E08BE00E944B0068
S113009008958CBF0895982F969596959695877098
S11300A0913021F130F09230F1F1933009F458C0DD
S11300B00895613069F44AB321E030E0B90102C027
S11300C0660F771F8A95E2F7CB01842B8ABB0895CC
S11300D04AB321E030E0B90102C0660F771F8A9568
S11300E0E2F7CB01809584238ABB0895613069F4DB
S11300F047B321E030E0B90102C0660F771F8A954B
S1130100E2F7CB01842B87BB089547B321E030E0AD
S1130110B90102C0660F771F8A95E2F7CB0180957B
S1130120842387BB0895613069F444B321E030E04F
S1130130B90102C0660F771F8A95E2F7CB01842BC1
S113014084BB089544B321E030E0B90102C0660FD6
S1130150771F8A95E2F7CB018095842384BB0895A9
S1130160613069F441B321E030E0B90102C0660FA7
S1130170771F8A95E2F7CB01842B81BB089541B3A5
S113018021E030E0B90102C0660F771F8A95E2F7DB
S1130190CB018095842381BB08950E944100C0E077
S11301A00AC08C2F0E9449008FE19EE40197F1F769
S11301B000C00000CF5FCF3FA1F70AC08C2F0E9480
S11301C049008FE19EE40197F1F700C00000C1509F
S10D01D0C111F4CFE4CFF894FFCF7F
S9030000FC
