S01200004C6564205370726561642E737265637E
S11300000C942A000C9434000C9434000C943400A6
S11300100C9434000C9434000C9434000C9434008C
S11300200C9434000C9434000C9434000C9434007C
S11300300C9434000C9434000C9434000C9434006C
S11300400C9434000C9434000C9434000C9434005C
S11300500C94340011241FBECFE5D8E0DEBFCDBF21
S11300600E94A3000C94E4000C940000813001F180
S113007030F08230B1F1833009F44CC0089541303E
S113008059F42AB381E090E002C0880F991F6A9561
S1130090E2F7822B8ABB08952AB381E090E002C084
S11300A0880F991F6A95E2F7809582238ABB089589
S11300B0413059F427B381E090E002C0880F991FC2
S11300C06A95E2F7822B87BB089527B381E090E01D
S11300D002C0880F991F6A95E2F78095822387BB37
S11300E00895413059F424B381E090E002C0880FB0
S11300F0991F6A95E2F7822B84BB089524B381E0AB
S113010090E002C0880F991F6A95E2F780958223D8
S113011084BB0895413059F421B381E090E002C0DA
S1130120880F991F6A95E2F7822B81BB089521B34A
S113013081E090E002C0880F991F6A95E2F78095EC
S1130140822381BB089541E050E060E070E080E0EC
S113015090E00E94360041E050E061E070E080E011
S113016090E00E94360041E050E062E070E080E000
S113017090E00E94360041E050E063E070E080E0EF
S113018090E00E94360041E050E060E070E082E0E0
S113019090E00E94360041E050E061E070E082E0CF
S11301A090E00E94360041E050E062E070E082E0BE
S11301B090E00E94360041E050E063E070E082E0AD
S10F01C090E00E943600FFCFF894FFCFBF
S9030000FC
