S01000004C454420546573742E737265637F
S11300000C942A000C943F000C943F000C943F0085
S11300100C943F000C943F000C943F000C943F0060
S11300200C943F000C943F000C943F000C943F0050
S11300300C943F000C943F000C943F000C943F0040
S11300400C943F000C943F000C943F000C943F0030
S11300500C943F0011241FBECFE5D8E0DEBFCDBF16
S113006010E0A0E6B0E0EEEBF4E002C005900D92E3
S1130070A03AB107D9F70E9416020C945D020C94C1
S11300800000982F9695969596958770913021F15A
S113009030F09230F1F1933009F458C00895613092
S11300A069F44BB321E030E0B90102C0660F771F59
S11300B08A95E2F7CB01842B8BBB08954BB321E0E7
S11300C030E0B90102C0660F771F8A95E2F7CB01D1
S11300D0809584238BBB0895613069F448B321E093
S11300E030E0B90102C0660F771F8A95E2F7CB01B1
S11300F0842B88BB089548B321E030E0B90102C0E5
S1130100660F771F8A95E2F7CB018095842388BB1D
S11301100895613069F445B321E030E0B90102C0CB
S1130120660F771F8A95E2F7CB01842B85BB089570
S113013045B321E030E0B90102C0660F771F8A950C
S1130140E2F7CB018095842385BB0895613069F47F
S113015042B321E030E0B90102C0660F771F8A95EF
S1130160E2F7CB01842B82BB089542B321E030E057
S1130170B90102C0660F771F8A95E2F7CB0180951B
S1130180842382BB0895982F9695969596958770AB
S1130190913021F130F09230F1F1933009F458C0EC
S11301A00895613069F44AB321E030E0B90102C036
S11301B0660F771F8A95E2F7CB01842B8ABB0895DB
S11301C04AB321E030E0B90102C0660F771F8A9577
S11301D0E2F7CB01809584238ABB0895613069F4EA
S11301E047B321E030E0B90102C0660F771F8A955A
S11301F0E2F7CB01842B87BB089547B321E030E0BD
S1130200B90102C0660F771F8A95E2F7CB0180958A
S1130210842387BB0895613069F444B321E030E05E
S1130220B90102C0660F771F8A95E2F7CB01842BD0
S113023084BB089544B321E030E0B90102C0660FE5
S1130240771F8A95E2F7CB018095842384BB0895B8
S1130250613069F441B321E030E0B90102C0660FB6
S1130260771F8A95E2F7CB01842B81BB089541B3B4
S113027021E030E0B90102C0660F771F8A95E2F7EA
S1130280CB018095842381BB089580E0A0C0982F82
S1130290969596959695282F2770913061F138F0B0
S11302A0923009F44CC0933009F46DC08FC0E82F2C
S11302B0F0E0EE0FFF1FE05AFF4F9081913069F498
S11302C09AB341E050E0BA0102C0660F771F2A9545
S11302D0E2F79B01292B2ABB79C09AB341E050E095
S11302E0BA0102C0660F771F2A95E2F79B01209599
S11302F029232ABB6BC0E82FF0E0EE0FFF1FE05A62
S1130300FF4F9081913069F497B341E050E0BA0116
S113031002C0660F771F2A95E2F79B01292B27BBA2
S113032055C097B341E050E0BA0102C0660F771F91
S11303302A95E2F79B012095292327BB47C0E82F84
S1130340F0E0EE0FFF1FE05AFF4F9081913069F407
S113035094B341E050E0BA0102C0660F771F2A95BA
S1130360E2F79B01292B24BB31C094B341E050E058
S1130370BA0102C0660F771F2A95E2F79B01209508
S1130380292324BB23C0E82FF0E0EE0FFF1FE05A1F
S1130390FF4F9081913069F491B341E050E0BA018C
S11303A002C0660F771F2A95E2F79B01292B21BB18
S11303B00DC091B341E050E0BA0102C0660F771F4F
S11303C02A95E2F79B012095292321BB8F5F803278
S11303D008F45DCF089561E08BE10E94C30061E001
S11303E087E10E94C30061E082E10E94C300089596
S11303F061E08BE10E944100089561E087E10E9481
S11304004100089561E082E10E944100089560E0A6
S11304108BE10E944100089560E087E10E94410061
S1130420089560E082E10E94410008950E94450120
S11304300E94EB010E9402022FEF83ED90E3215012
S113044080409040E1F700C000000E94FD012FEFC2
S113045083ED90E3215080409040E1F700C000001C
S11304600E94F8012FEF83ED90E3215080409040EB
S1130470E1F700C000000E9411022FEF83ED90E32A
S1130480215080409040E1F700C000000E940C021F
S11304902FEF83ED90E3215080409040E1F700C0BE
S11304A000000E9407022FEF83ED90E3215080406B
S11104B09040E1F700C00000BDCFF894FFCFEC
S11304BE010101010101010101010101010101011A
S11304CE010101010101010101010101010101010A
S11304DE01010101010101010101010101010101FA
S11304EE01010101000001010101010101010101EC
S9030000FC
