S01600004C43442043616C63756C61746F722E7372656311
S11300000C942A000C943F000C943F000C943F0085
S11300100C943F000C943F000C943F000C943F0060
S11300200C943F000C943F000C943F000C943F0050
S11300300C943F000C943F000C943F000C943F0040
S11300400C943F000C943F000C943F000C943F0030
S11300500C943F0011241FBECFE5D8E0DEBFCDBF16
S113006010E0A0E6B0E0E2EBFDE002C005900D92E6
S1130070A83BB107D9F70E946F030C94D7060C94E0
S11300800000982F9695969596958770913021F15A
S113009030F09230F1F1933009F458C00895613092
S11300A069F44BB321E030E0B90102C0660F771F59
S11300B08A95E2F7CB01842B8BBB08954BB321E0E7
S11300C030E0B90102C0660F771F8A95E2F7CB01D1
S11300D0809584238BBB0895613069F448B321E093
S11300E030E0B90102C0660F771F8A95E2F7CB01B1
S11300F0842B88BB089548B321E030E0B90102C0E5
S1130100660F771F8A95E2F7CB018095842388BB1D
S11301100895613069F445B321E030E0B90102C0CB
S1130120660F771F8A95E2F7CB01842B85BB089570
S113013045B321E030E0B90102C0660F771F8A950C
S1130140E2F7CB018095842385BB0895613069F47F
S113015042B321E030E0B90102C0660F771F8A95EF
S1130160E2F7CB01842B82BB089542B321E030E057
S1130170B90102C0660F771F8A95E2F7CB0180951B
S1130180842382BB0895982F969596959695482F2B
S11301904770913081F028F09230B9F09330F9F043
S11301A028C099B3892F90E002C0959587954A9508
S11301B0E2F78170089526B330E0C90102C0959535
S11301C087954A95E2F78170089523B330E0C90119
S11301D002C0959587954A95E2F78170089520B3FA
S11301E030E0C90102C0959587954A95E2F7817080
S11301F0089580E00895982F969596959695877022
S1130200913021F130F09230F1F1933009F458C07B
S11302100895613069F44AB321E030E0B90102C0C5
S1130220660F771F8A95E2F7CB01842B8ABB08956A
S11302304AB321E030E0B90102C0660F771F8A9506
S1130240E2F7CB01809584238ABB0895613069F479
S113025047B321E030E0B90102C0660F771F8A95E9
S1130260E2F7CB01842B87BB089547B321E030E04C
S1130270B90102C0660F771F8A95E2F7CB0180951A
S1130280842387BB0895613069F444B321E030E0EE
S1130290B90102C0660F771F8A95E2F7CB01842B60
S11302A084BB089544B321E030E0B90102C0660F75
S11302B0771F8A95E2F7CB018095842384BB089548
S11302C0613069F441B321E030E0B90102C0660F46
S11302D0771F8A95E2F7CB01842B81BB089541B344
S11302E021E030E0B90102C0660F771F8A95E2F77A
S11302F0CB018095842381BB0895813041F028F09F
S1130300823039F0833039F008C08BB3089588B354
S1130310089585B3089582B3089580E008958130E7
S113032041F028F0823039F0833039F008956BBB06
S1130330089568BB089565BB089562BB089580E085
S1130340A0C0982F969596959695282F2770913052
S113035061F138F0923009F44CC0933009F46DC067
S11303608FC0E82FF0E0EE0FFF1FE05AFF4F90819F
S1130370913069F49AB341E050E0BA0102C0660FCB
S1130380771F2A95E2F79B01292B2ABB79C09AB3E0
S113039041E050E0BA0102C0660F771F2A95E2F7E8
S11303A09B01209529232ABB6BC0E82FF0E0EE0FB8
S11303B0FF1FE05AFF4F9081913069F497B341E0F9
S11303C050E0BA0102C0660F771F2A95E2F79B013D
S11303D0292B27BB55C097B341E050E0BA0102C0B6
S11303E0660F771F2A95E2F79B012095292327BBE7
S11303F047C0E82FF0E0EE0FFF1FE05AFF4F908157
S1130400913069F494B341E050E0BA0102C0660F40
S1130410771F2A95E2F79B01292B24BB31C094B3A3
S113042041E050E0BA0102C0660F771F2A95E2F757
S11304309B012095292324BB23C0E82FF0E0EE0F75
S1130440FF1FE05AFF4F9081913069F491B341E06E
S113045050E0BA0102C0660F771F2A95E2F79B01AC
S1130460292B21BB0DC091B341E050E0BA0102C079
S1130470660F771F2A95E2F79B012095292321BB5C
S11304808F5F803208F45DCF08951F93CF93DF937D
S113049010E00DC0C12FD0E0C055DF4F60E088816F
S11304A00E94FB0061E088810E9441001F5F1430BC
S11304B088F310E00DC0C12FD0E0CC54DF4F61E0D1
S11304C088810E94FB0061E088810E9441001F5FD7
S11304D0143088F3DF91CF911F910895EF92FF922A
S11304E00F931F93CF93DF93D0E034C0ED2EF12C04
S11304F0F701EC54FF4F60E080810E944100C0E0AE
S11305001FC00C2F10E0F801E055FF4F80810E94BE
S1130510C300811114C0F801E055FF4F80810E948F
S1130520C3008823C1F3C701880F991F880F991F3F
S113053080569F4FFC01E00FF11F80810EC0CF5FFA
S1130540C430F8F2F701EC54FF4F61E080810E945F
S11305504100DF5FD43050F280E0DF91CF911F91F2
S11305600F91FF90EF900895CF93C82F60E089E03A
S11305700E94410080E00E947D018F709C2F907F3B
S1130580682F692B80E00E948F0160E08BE00E945D
S113059041008FE891E00197F1F700C0000061E0AD
S11305A08BE00E9441008FE19EE40197F1F700C0C7
S11305B0000080E00E947D0190E1C99F9001112418
S11305C08F70682F622B80E00E948F0160E08BE0C7
S11305D00E9441008FE891E00197F1F700C000000C
S11305E061E08BE00E9441008FE39FE10197F1F706
S11305F000C00000CF91089560E08AE00E944100AD
S113060061E08BE00E9441002FEF89EF90E02150E0
S113061080409040E1F700C0000083E30E94B402F0
S113062082E30E94B40288E20E94B40286E00E943F
S1130630B4028FE00E94B4028FE39FE10197F1F7C7
S113064000C000000895CF93C82F61E089E00E94A4
S1130650410080E00E947D018F709C2F907F682F65
S1130660692B80E00E948F0160E08BE00E944100D2
S11306708FE891E00197F1F700C0000061E08BE0A2
S11306800E9441008FE19EE40197F1F700C0000051
S113069080E00E947D0190E1C99F900111248F7038
S11306A0682F622B80E00E948F0160E08BE00E9443
S11306B041008FE891E00197F1F700C0000061E08C
S11306C08BE00E9441008FE39FE10197F1F700C0A6
S11306D00000CF91089581E00E94B4020895CF9361
S11306E0DF9300D000D000D0CDB7DEB70E949F01C9
S11306F00E9445020E94FC020E94FC020E944502E4
S1130700FE01319686E0DF011D928A95E9F7F12C0E
S11307100F2D10E00E946E02E1E0F0E0EC0FFD1FEF
S1130720E00FF11F8083882399F3813451F08D33D6
S113073041F08B3231F08D3221F08A3211F08F3258
S113074019F40E946B03D8CF0E942303EE24E39490
S1130750EF0CBFEF29EF30E0B15020403040E1F71B
S113076000C000000E2D10E00E946E02E1E0F0E0F7
S1130770EC0FFD1FE00FF11F8083882399F3813470
S113078051F08D3341F08B3231F08D3221F08A32C9
S113079011F08F3219F40E946B03AECF0E94230331
S11307A06894EE24E1F8EF0C8FEF99EFA0E081500C
S11307B09040A040E1F700C000000E2D10E00E9420
S11307C06E02E1E0F0E0EC0FFD1FE00FF11F80830B
S11307D0882399F3813411F08D3319F40E946B034B
S11307E08BCF0E9423030F2EF3E0EF2EF02DEF0C9E
S11307F0BFEF29EF30E0B15020403040E1F700C0B6
S113080000000E2D10E00E946E02E1E0F0E0EC0F1B
S1130810FD1FE00FF11F8083882399F3813451F089
S11308208D3341F08B3231F08D3221F08A3211F068
S11308308F3219F40E946B035FCF0E9423036894E4
S1130840EE24E2F8EF0C8FEF99EFA0E08150904096
S1130850A040E1F700C000000E2D10E00E946E02DF
S1130860E1E0F0E0EC0FFD1FE00FF11F808388232F
S113087099F3813451F08D3341F08B3231F08D3264
S113088021F08A3211F08F3219F40E946B0334CFB5
S11308900E942303B5E0FB0E2FEF39EF80E02150D7
S11308A030408040E1F700C000000F2D10E00E94AE
S11308B06E02E1E0F0E0EC0FFD1FE00FF11F80831A
S11308C0882399F38D3309F03DC20E942303F80174
S11308D03397A1E0B0E0AC0FBD1FEA0FFB1F80818E
S11308E08B3261F020F48A3209F408C12EC28D32B1
S11308F009F485C08F3209F491C127C2F8013497F5
S113090021E030E02C0F3D1FE20FF31F9081F8012E
S11309103597E20FF31F408150E040535109F8012D
S11309203297E20FF31F208130E020533109015048
S11309301109E1E0F0E0EC0FFD1FE00FF11F8081F1
S1130940440F342F330F330F430F490F220F922FCD
S1130950990F990F290F240F280F10EA120F14363C
S113096060F189E2189F812D112482958F70805D3A
S11309700E9423038DEC189F012D112406950695E2
S11309800695089F812D1124869586958695880F56
S1130990982F990F990F890F302F381B832F805D63
S11309A00E942303000F802F880F880F080F812FC8
S11309B0801B805D0E942303C8C186E9820F8A35AB
S11309C0B0F40DEC109F012D1124069506950695A3
S11309D080E3800F0E942303000F802F880F880F6D
S11309E0080F812F801B805D0E942303AEC11A3043
S11309F008F0ABC180ED820F0E942303A6C1F80169
S1130A00349781E090E08C0F9D1FE80FF91F40811F
S1130A10F8013597E80FF91F208130E020533109A0
S1130A20F8013297E80FF91F808190E0C0970150D8
S1130A301109E1E0F0E0EC0FFD1FE00FF11F9081E0
S1130A40220F122F110F110F210F122F140F880FC5
S1130A50282F220F220F820F890F181B143660F1E2
S1130A6089E2189F812D112482958F70805D0E94E8
S1130A7023038DEC189F012D1124069506950695E8
S1130A80089F812D1124869586958695880F982F29
S1130A90990F990F890F902F981B892F805D0E94C1
S1130AA02303000F802F880F880F080F812F801BCE
S1130AB0805D0E94230349C186EF810F8A35B0F41B
S1130AC00DEC109F012D112406950695069580E3E3
S1130AD0800F0E942303000F802F880F880F080FB8
S1130AE0812F801B805D0E9423032FC11A3008F0E0
S1130AF02CC180E3810F0E94230327C1F80134979E
S1130B00A1E0B0E0AC0FBD1FEA0FFB1F408150E035
S1130B1040535109F8013597EA0FFB1F808190E09B
S1130B20C0979C01220F331F880F991F880F991FAC
S1130B30880F991F820F931F480F591FF80132978E
S1130B40EA0FFB1F808190E0C0979C01220F331FA6
S1130B50880F991F880F991F880F991F820F931F61
S1130B6001501109FD01E00FF11F208130E02053F5
S1130B703109820F931F489F102D1124143660F100
S1130B8089E2189F812D112482958F70805D0E94C7
S1130B9023038DEC189F012D1124069506950695C7
S1130BA0089F812D1124869586958695880F982F08
S1130BB0990F990F890FB02FB81B8B2F805D0E945E
S1130BC02303000F802F880F880F080F812F801BAD
S1130BD0805D0E942303B9C086EF810F8A35B0F48B
S1130BE00DEC109F012D112406950695069580E3C2
S1130BF0800F0E942303000F802F880F880F080F97
S1130C00812F801B805D0E9423039FC01A3008F04F
S1130C109CC080E3810F0E94230397C0F80134979E
S1130C2021E030E02C0F3D1FE20FF31F808190E0A4
S1130C30C097F8013597E20FF31F208130E020536D
S1130C403109A901440F551F220F331F220F331FEF
S1130C50220F331F240F351F820F931FF801329781
S1130C60A1E0B0E0AC0FBD1FEA0FFB1F208130E014
S1130C7020533109B901660F771F220F331F220F4A
S1130C80331F220F331F260F371F01501109FD0197
S1130C90E00FF11F608170E060537109620F731FF0
S1130CA00E94AF06162F643660F189E2689F812D99
S1130CB0112482958F70805D0E9423038DEC189F10
S1130CC0012D1124069506950695089F812D112462
S1130CD0869586958695880F982F990F990F890F79
S1130CE0B02FB81B8B2F805D0E942303000F802F31
S1130CF0880F880F080F812F801B805D0E942303BB
S1130D0024C096EF960F9A35B0F40DEC609F012D38
S1130D10112406950695069580E3800F0E9423030F
S1130D20000F802F880F880F080F812F801B805D94
S1130D300E9423030AC06A3040F480E3860F0E94B5
S1130D40230303C00E946B03D7CC2FEF39EF80E05D
S1130D50215030408040E1F700C00000D9CC97FB1F
S1130D60072E16F4009407D077FD09D00E94C3061D
S1130D7007FC05D03EF4909581959F4F089570959A
S1130D8061957F4F0895AA1BBB1B51E107C0AA1FA1
S1130D90BB1FA617B70710F0A61BB70B881F991F18
S1130DA05A95A9F780959095BC01CD010895F894C2
S1050DB0FFCF6F
S1130DB2010101010101010101010101010101011D
S1130DC2010101010101010101010101010101010D
S1130DD201010101010101010101010101010101FD
S1130DE201010101000001010101010101010101EF
S1130DF23738392F3435362A3132332D43303D2BAF
S10B0E021C1D1E1F15191A1B0B
S9030000FC
