S0110000426C7565746F6F74682E737265635D
S11300000C942A000C943F000C943F000C943F0085
S11300100C943F000C943F000C943F000C943F0060
S11300200C943F000C943F000C943F000C943F0050
S11300300C943F000C943F000C943F000C943F0040
S11300400C943F000C943F000C943F000C943F0030
S11300500C943F0011241FBECFE5D8E0DEBFCDBF16
S113006010E0A0E6B0E0E6EFF3E002C005900D92E8
S1130070AE36B107D9F70E940D010C94F9010C9426
S113008000000E94340108950E94C00108950E9456
S1130090D3010895982F96959695969587709130EB
S11300A021F130F09230F1F1933009F458C0089501
S11300B0613069F44AB321E030E0B90102C0660F4F
S11300C0771F8A95E2F7CB01842B8ABB08954AB344
S11300D021E030E0B90102C0660F771F8A95E2F78C
S11300E0CB01809584238ABB0895613069F447B3BA
S11300F021E030E0B90102C0660F771F8A95E2F76C
S1130100CB01842B87BB089547B321E030E0B901CC
S113011002C0660F771F8A95E2F7CB01809584238E
S113012087BB0895613069F444B321E030E0B9013C
S113013002C0660F771F8A95E2F7CB01842B84BB3C
S1130140089544B321E030E0B90102C0660F771F7F
S11301508A95E2F7CB018095842384BB08956130AE
S113016069F441B321E030E0B90102C0660F771FA2
S11301708A95E2F7CB01842B81BB089541B321E03A
S113018030E0B90102C0660F771F8A95E2F7CB0110
S11301908095842381BB0895982F9695969596957E
S11301A08770913099F028F09230E9F0933041F162
S11301B008954BB321E030E0B90102C0660F771F08
S11301C08A95E2F7CB0184278BBB089548B321E0DD
S11301D030E0B90102C0660F771F8A95E2F7CB01C0
S11301E0842788BB089545B321E030E0B90102C0FB
S11301F0660F771F8A95E2F7CB01842785BB0895A4
S113020042B321E030E0B90102C0660F771F8A953E
S1130210E2F7CB01842782BB0895CF93DF93CDB758
S1130220DEB728970FB6F894DEBF0FBECDBF61E0EE
S11302308BE00E944A0088E0E0E6F0E0DE011196DF
S113024001900D928A95E1F7CE0101960E9441003A
S113025088E690E00E9444000E9447008133E1F761
S11302608BE00E94CC00F8CFCF93DF93EC018A811E
S11302708130F9F48BB182608BB928813981C9014D
S1130280A0E0B0E0880F991FAA1FBB1F880F991F19
S1130290AA1FBB1F9C01AD01220F331F441F551F12
S11302A060E074E284EF90E00E94D70121503109AC
S11302B022C08BB18D7F8BB928813981C901A0E01F
S11302C0B0E0880F991FAA1FBB1F880F991FAA1F90
S11302D0BB1F9C01AD01220F331F441F551F220F6A
S11302E0331F441F551F60E074E284EF90E00E94C6
S11302F0D7012150310929B930BD9B81973039F498
S11303008AB184608AB980B5866880BD08C020B58A
S1130310892F90E0880F991F822B806880BD20B5BB
S11303209D8130E1939FC0011124822B806880BDA0
S113033020B59C81892F90E0880F991F880F991F01
S1130340880F991F822B806880BD2AB19E81892FD6
S113035090E0880F991F880F991F880F991F822B8F
S11303608AB92AB19F8130E1939FC0011124822B65
S11303708AB9DF91CF9108955D9BFECF8CB9089522
S11303800F931F93CF938C01C0E003C00E94BC0164
S1130390CF5FF801EC0FF11D80818111F7CFCF9170
S11303A01F910F9108955F9BFECF8CB10895A1E238
S11303B01A2EAA1BBB1BFD010DC0AA1FBB1FEE1FDB
S11303C0FF1FA217B307E407F50720F0A21BB30B26
S11303D0E40BF50B661F771F881F991F1A9469F7A2
S11303E060957095809590959B01AC01BD01CF01FE
S10903F00895F894FFCF0C
S11103F68025000300000101546573740000AB
S9030000FC
