S00B00004C43442E7372656346
S11300000C942A000C943F000C943F000C943F0085
S11300100C943F000C943F000C943F000C943F0060
S11300200C943F000C943F000C943F000C943F0050
S11300300C943F000C943F000C943F000C943F0040
S11300400C943F000C943F000C943F000C943F0030
S11300500C943F0011241FBECFE5D8E0DEBFCDBF16
S113006010E0A0E6B0E0E0E9F4E002C005900D92F3
S1130070A237B107D9F70E9441000C9446020C94B0
S113008000000E949D0165E081E00E94350280E647
S113009090E00E94220261E080E00E94350286E640
S11300A090E00E942202FFCF813001F130F08230D3
S11300B0B1F1833009F44CC00895413059F42AB3A6
S11300C081E090E002C0880F991F6A95E2F7822BC5
S11300D08ABB08952AB381E090E002C0880F991F7B
S11300E06A95E2F7809582238ABB0895413059F4DA
S11300F027B381E090E002C0880F991F6A95E2F768
S1130100822B87BB089527B381E090E002C0880F5B
S1130110991F6A95E2F78095822387BB0895413041
S113012059F424B381E090E002C0880F991F6A95C6
S1130130E2F7822B84BB089524B381E090E002C0EF
S1130140880F991F6A95E2F78095822384BB0895EE
S1130150413059F421B381E090E002C0880F991F27
S11301606A95E2F7822B81BB089521B381E090E088
S113017002C0880F991F6A95E2F78095822381BB9C
S11301800895813001F130F08230B1F1833009F407
S11301904CC00895413059F42BB381E090E002C083
S11301A0880F991F6A95E2F7822B8BBB08952BB3B6
S11301B081E090E002C0880F991F6A95E2F780956C
S11301C082238BBB0895413059F428B381E090E039
S11301D002C0880F991F6A95E2F7822B88BB0895A5
S11301E028B381E090E002C0880F991F6A95E2F776
S11301F08095822388BB0895413059F425B381E06A
S113020090E002C0880F991F6A95E2F7822B85BBA4
S1130210089525B381E090E002C0880F991F6A9584
S1130220E2F78095822385BB0895413059F422B3C7
S113023081E090E002C0880F991F6A95E2F7822B53
S113024082BB089522B381E090E002C0880F991F19
S11302506A95E2F78095822382BB0895813041F04C
S113026028F0823039F0833039F008C08BB3089518
S113027088B3089585B3089582B3089580E00895FE
S1130280813041F028F0823039F0833039F008951C
S11302906BBB089568BB089565BB089562BB089560
S11302A0CF93C82F40E061E081E00E94540080E0D9
S11302B00E942E018F709C2F907F682F692B80E005
S11302C00E94400140E063E081E00E94C1008FE8A9
S11302D091E00197F1F700C0000041E063E081E0A4
S11302E00E94C1008FE19EE40197F1F700C0000075
S11302F080E00E942E0190E1C99F900111248F702B
S1130300682F622B80E00E94400140E063E081E0BE
S11303100E94C1008FE891E00197F1F700C000004E
S113032041E063E081E00E94C1008FE39FE1019717
S1130330F1F700C00000CF91089541E062E081E050
S11303400E94540041E063E081E00E94540041E0D7
S113035061E081E00E94540040E062E081E00E949C
S1130360C10041E063E081E00E94C1002FEF89EF0A
S113037090E0215080409040E1F700C0000083E30A
S11303800E94500182E30E94500188E20E945001C1
S113039086E00E9450018FE00E9450018FE39FE1AC
S11303A00197F1F700C000000895CF93C82F41E0F2
S11303B061E081E00E94540080E00E942E018F7071
S11303C09C2F907F682F692B80E00E94400140E0C1
S11303D063E081E00E94C1008FE891E00197F1F7AA
S11303E000C0000041E063E081E00E94C1008FE1B1
S11303F09EE40197F1F700C0000080E00E942E0106
S113040090E1C99F900111248F70682F622B80E0C6
S11304100E94400140E063E081E00E94C1008FE857
S113042091E00197F1F700C0000041E063E081E052
S11304300E94C1008FE39FE10197F1F700C0000023
S1130440CF9108950F931F93CF938C01C0E003C005
S11304500E94D501CF5FF801EC0FF11D808181115D
S1130460F7CFCF911F910F910895813019F0823009
S113047039F00895862F8F7080680E945001089586
S1130480862F8F70806C0E9450010895F894FFCFDE
S113049045736C616D0046616E7461426C61636B9F
S10504A0000056
S9030000FC
